:020000040800F2
:10000000A852002045010008352F00081D180008DF
:10001000712A0008BF0900089D4D0008000000007B
:1000200000000000000000000000000099400008EF
:10003000D70A000800000000C33500085943000833
:100040005F0100085F0100085F0100085F01000810
:100050005F0100085F010008F51000085F0100085B
:100060005F0100085F0100085F0100085F010008F0
:100070005F0100085F0100085F0100085F010008E0
:100080005F0100085F0100085F0100085F010008D0
:100090005F0100085F0100085F0100085F010008C0
:1000A0005F0100085F0100085F0100085F010008B0
:1000B0003D440008ED4400085F0100085F010008AE
:1000C0005F0100085F0100085F0100085F01000890
:1000D0005F010008B94900085F010008BD49000838
:1000E000B11100085F0100085F0100085F0100080E
:1000F0005F0100085F0100085F0100085F01000860
:100100005F0100085F0100085F0100085F0100084F
:100110005F0100085F0100085F0100085F0100083F
:100120005F0100085F0100085F0100085F0100082F
:10013000DFF80CD000F0F6FB00480047E55F000850
:10014000A85200200648804706480047FEE7FEE721
:10015000FEE7FEE7FEE7FEE7FEE7FEE7FEE7FEE777
:10016000DD43000831010008D2B201E000F8012BA4
:10017000491EFBD270470022F6E710B513460A4627
:1001800004461946FFF7F0FF204610BD30B505467E
:100190002A460B4612F8010B13F8014B08B1A04296
:1001A000F8D01CB1002802D06D1CF1E7284630BD04
:1001B000421C10F8011B0029FBD1801A7047F0B4D3
:1001C00080EA0102D40F4200B2EB410F02D2024694
:1001D000084611464A0042D0C30DDDB2C1F3C752F2
:1001E000AD1A202D35DAC1F3160141F4000204B135
:1001F0005242C5F1200602FA06F12A411044B3EB3F
:10020000D05F23D0C4B1012DA0EBC35009DCF0BCFA
:100210004FF0004202EAC352DBB200F5000000F0EA
:10022000F6BA400000F1807000EBC350A0F180707E
:1002300040EAD170490009E0490841EAC071A0EBE9
:10024000C35000F50000400800EBC350F0BC00F0C4
:10025000D5BA6142012202EB4101001BF6E7F0BC76
:10026000704781F00041AAE780F00040A7E780EAEC
:10027000010210B502F00043400022D04A001FD016
:10028000010E01EB1261C0F35600C2F3560240F4B6
:10029000000042F40002A0FB022000047F39140495
:1002A00000D0401C50EA124001D44000491EC2B2A6
:1002B0000C0604EBD010401C4008802A02D003E05A
:1002C000002010BD20F00100002900DA00201843B2
:1002D00010BD30B480EA010202F0004530F0004267
:1002E00021F0004013D090B1C30DD40DC2F316011C
:1002F000C0F31600E41A41F4000140F400027D341A
:10030000914201D3641C00E04900002C02DA30BCA9
:10031000002070474FF400000023914201D3891A56
:10032000034340084FEA4101F7D151B1914202D154
:100330004FF0004105E002D24FF0010101E06FF003
:10034000010103EBC450284430BC00F057BA2DE93A
:10035000FE4F804681EA0300C00F0C46009021F05A
:10036000004123F00045B8EB0200A94105D2404608
:10037000214690461C460B46024623F0004010439F
:1003800047D0270DC7F30A00C3F30A510290401A61
:10039000019040286BDAC3F3130040F4801B0098EF
:1003A000924620B10023D2EB030A63EB0B0B0198BA
:1003B0005946C0F14002504600F0FFF906460D468E
:1003C00050465946019A00F007FA10EB08006141C7
:1003D000002487EA115284EAE7731A4340D0009A56
:1003E00062B3019A012A4FEA075215DC001B61EB48
:1003F00002014FF0004202EA0752CDE90042001C20
:1004000041F5801132462B4600F03EFA03B0BDE8BC
:10041000F08F40462146F9E7001B61EB0201001C0A
:1004200041F5801300185B412018A2F5001747EB37
:10043000030140EAD570B6196D4111E06D084FEA2D
:10044000360645EAC0754FEA0752001B61EB020110
:10045000001C41F5801149084FEA30000019514154
:1004600032462B4603B0BDE8F04F00F0FEB90098CD
:10047000012240000023D0EB020263EBE0730098FE
:1004800021464FEAE074B8EB000061EB0401E9E7B4
:1004900083F000435BE781F0004158E72DE9FE4F10
:1004A00081EA030404F0004421F0004100944FF07D
:1004B000000B23F0004350EA01045ED052EA03042B
:1004C0005BD0C3F30A54C1F30A552C44A4F2F334AD
:1004D0000194A0FB0254C1F3130141F48011C3F352
:1004E000130343F4801301FB024400FB034E840A10
:1004F000970A44EA815447EA8357A4FB07680295A8
:100500008D0A05FB07854FEA932C04FB0C54270545
:10051000029D4FEA065847EA1637B5EB08056EEB21
:10052000070C870E920E47EA811742EA8312A7FB57
:100530000201B6EB0B0164EB00042B0D43EA0C3314
:100540005E1844EB1C50DA465146E7FB0201C5F346
:1005500013044FEA0B3343EA14534FEA0432019C6D
:1005600043EA0603A4F10C040294009CCDE900B414
:1005700000F08AF903B0BDE8F08F00200146F9E7EA
:100580002DE9F04D81EA030404F0004B21F0004511
:1005900014464FF0000A23F0004150EA050220D033
:1005A00054EA01021DD0C5F30A570246C5F31303EE
:1005B000C1F31300C1F30A5640F4801543F48013CD
:1005C000A7EB0608101BD64608F2FD3873EB0500B2
:1005D00002D308F1010801E092185B41B8F1000F65
:1005E00003DA00200146BDE8F08D00204FF48011B1
:1005F000064684460EE0171B73EB050705D3121B56
:1006000063EB050306434CEA010C49084FEA30004E
:1006100092185B4150EA0107EDD152EA030012D073
:1006200082EA040083EA0501084305D0101BAB41B0
:1006300006D20122002306E000224FF0004302E030
:100640006FF0010253101AEB06004CEB085110EB4F
:100650000A0041EB0B01BDE8F04D00F006B9C10FF7
:1006600080EAE0700844CA079623002100F0CFB862
:100670000EB540F2334102910021CDE900110A4646
:100680000B4600F001F903B000BD00F0004220F07D
:100690000040C10DC0F3160040F400007F2901DACC
:1006A00000207047962903DCC1F19601C84001E0A3
:1006B00096398840002AF4D04042704720F000402C
:1006C000C10DC0F3160040F400007F2901DA0020BC
:1006D0007047962903DCC1F19601C84070479639EE
:1006E0008840704700F0004230F000400AD0C10D51
:1006F00001F56071C0F3160042EA0151C2084007DB
:100700001143704700200146704701F0004330B4A8
:1007100021F0004150EA010206D00A0DA2F56072F4
:10072000C1F31301002A02DC30BC00207047440FE3
:1007300044EAC104C100E01830BC00EBC25000F034
:100740005DB80000002801DBC0F10040002901DB9A
:10075000C1F10041814270472DE9F05F054600205C
:1007600092469B4688460646814640241BE0284622
:1007700041464746224600F0E7F853465A46C01A1B
:10078000914110D311461846224600F016F82D1A52
:1007900067EB01084F4622460120002100F00DF8CA
:1007A00017EB00094E41201EA4F10104DFDC48468E
:1007B00031462A464346BDE8F09F202A04DB203A12
:1007C00000FA02F1002070479140C2F1200320FAA4
:1007D00003F3194390407047202A06DBCB17203AD9
:1007E00041FA02F043EAE07306E041FA02F3D04036
:1007F000C2F1200291400843194670470029A8BF62
:100800007047401C490008BF20F00100704710B439
:10081000B0FA80FC00FA0CF050EA010404BF10BCEE
:10082000704749B1CCF1200421FA04F411FA0CF11B
:1008300018BF012121430843A3EB0C01CB1D4FEA54
:1008400000614FEA102042BF002010BC704700EB4F
:10085000C35010440029A4BF10BC7047401C49007D
:1008600008BF20F0010010BC704710B5141E73F1D2
:10087000000408DA401C41F1000192185B411A4360
:1008800001D120F0010010BD2DE9F04D92469B46AC
:1008900011B1B1FA81F202E0B0FA80F22032904652
:1008A000FFF78BFF04460F4640EA0A0041EA0B01BE
:1008B00053465A46084313D0114653EA010019D053
:1008C000C8F14002504600F03FF805460E4650463B
:1008D00059464246FFF771FF084305D0012004E066
:1008E00020463946BDE8F08D0020054346EAE07613
:1008F0002C4337430A986305E40AA0EB0800002262
:10090000FD0A44EA47540A3002D500200146E9E7CF
:10091000010510196941DDE9084500196941BDE883
:10092000F04DA2E7064C074D06E0E06840F00103F9
:1009300094E8070098471034AC42F6D3FFF7FCFB6D
:10094000B09E0008D09E0008202A04DB203A21FA3D
:1009500002F00021704721FA02F3D040C2F12002D8
:10096000914008431946704770B58C1810F8015B28
:1009700015F0070301D110F8013B2A1106D110F838
:10098000012B03E010F8016B01F8016B5B1EF9D13C
:100990002B0705D40023521E0DD401F8013BFAE7C2
:1009A00010F8013BCB1A921C03E013F8015B01F82D
:1009B000015B521EF9D5A142D8D3002070BD00BF03
:1009C000FEE7000038B505460C460020009003F015
:1009D0008BF901229102684603F0CCF89DF80000E3
:1009E000A52801D0012000E00020012C01D1012127
:1009F00000E00021084308B39DF80000A52806D1B7
:100A0000012C04D1C022E102104803F0B3F800BF6A
:100A1000284604F089FD0028FAD0002003F010FADF
:100A2000A520009001229102684603F0CBF8C02275
:100A30004FF40061054803F0C5F805E0C0224FF40B
:100A40000061024803F096F838BD00009C000020C9
:100A50002DE9F0410746884615460421052000F09F
:100A60002DF80021012004F0DBF980210A2003F099
:100A7000F1FB002405E0395D092004F0D1F9601C88
:100A8000C4B24445F7DB0321012004F0C9F9FF2477
:100A900000BF052002F0EEFE0646601EC4B21CB187
:100AA00006F004000028F4D0222002F0E3FE2870B3
:100AB000212002F0DFFE6870BDE8F08170B50546C8
:100AC0000C46284602F0D6FE064626EA04012846D1
:100AD00004F0A6F970BD704701B50C490098086094
:100AE0004FF0E020006940F001004FF0E021086184
:100AF00000BF064800680028FBD14FF0E0200069E5
:100B000020F001004FF0E021086108BD5C000020EA
:100B100010B500244FF480410B4800F00BFE0B4849
:100B2000FFF7DAFF0CE04FF4FA73002208A109A0E6
:100B300000F012F800B110BD00F0F0F9601CC4B272
:100B40000A2CF0DB00BFF6E70020014080841E0085
:100B50004F4B0000415400002DE9F04106460C4681
:100B600015461F462E48B0F800046FF30E002C49BE
:100B7000A1F8000432462BA12C4804F08CF81CB9D3
:100B800015B90120BDE8F0814FF47A7107FB01F03F
:100B9000FFF7A2FF00202249B1F80014C1F30E01B3
:100BA0001F4A5054114622A004F06EFF1C48B0F8B2
:100BB00000046FF30E001A49A1F800040846B0F8CB
:100BC000000420F40040A1F80004B4B1ADB1214606
:100BD0001348FFF7DBFA08B1012000E0002040B91C
:100BE00029460F48FFF7D2FA08B1012000E00020A3
:100BF00008B10120C6E70020C4E744B121460848F7
:100C0000FFF7C4FA08B10120BCE70020BAE7294683
:100C10000348FFF7BBFA08B10120B3E70020B1E7B2
:100C20007045002025730D0A0000000000480040B8
:100C30002573000010B517A004F026FF4FF40051F3
:100C40001B4800F077FDFFF763FF002000F02AF952
:100C500000BF18A11AA000F0A5F80028F9D00020C4
:100C600000F04CF800BF052316A218A1002000F0E8
:100C7000B9F80028F7D000BF00F016FA0028FBD022
:100C800020201649086002201549086015A004F0CC
:100C9000FBFE10BD0D0AD5FDD4DAC5E4D6C3204550
:100CA000535038323636202E2E2E2E2E2E0D0A0080
:100CB0000020014070707070707070700000000053
:100CC000584D380031343534000000003139322EAF
:100CD0003136382E34332E3600000000140C01401B
:100CE000101C01400D0AC5E4D6C3204553503832CC
:100CF000363620CDEAB1CF0D0A00000010B586B01F
:100D000004460CB1012000E00020024606A101A823
:100D100004F0CAFE4FF4FA73002207A101A8FFF7FE
:100D20001BFF06B010BD000041542B4349504D55E8
:100D3000583D2564000000004F4B000008B501211C
:100D4000080202F0DDFC4FF40050ADF80000102066
:100D50008DF8030003208DF802006946074800F073
:100D600053FC0121080202F0CBFC4FF48040ADF8A7
:100D700000006946014800F047FC08BD0020014022
:100D800010B5FFF7DBFF00F02DF94FF48041044868
:100D900000F0D0FC4FF40051014800F0C9FC10BD38
:100DA0000020014030B59FB004460D462B46224638
:100DB00006A101A804F078FE41F28833002208A1C0
:100DC00001A8FFF7C9FE1FB030BD000041542B43FE
:100DD000574A41503D222573222C222573220000C0
:100DE0004F4B0000F0B5B9B006460F4614461D46FD
:100DF000642120A8FFF7BFF916B1012E10D107E03A
:100E00003B4614A214A120A8009404F04DFE08E073
:100E10003B4615A210A120A8009404F045FE00E076
:100E200000BF00BF052D06DA20AB2A460FA102A89D
:100E300004F03AFE04E020AA11A102A804F034FE56
:100E40004FF47A6312A216A102A8FFF785FE39B00B
:100E5000F0BD000054435000222573222C2225733C
:100E6000222C2573000000005544500041542B43B0
:100E7000495053544152543D25642C2573000000C1
:100E800041542B43495053544152543D2573000063
:100E9000414C5245415920434F4E4E45435400006A
:100EA0004F4B000010B5044624B1012C0AD0022C8F
:100EB00018D10FE040F6C4130BA20EA10EA0FFF74D
:100EC0004BFE10BD40F6C41307A20AA10DA0FFF708
:100ED00043FEF6E740F6C41303A206A10CA0FFF7F9
:100EE0003BFEEEE70020ECE76E6F206368616E6703
:100EF000650000004F4B000041542B43574D4F44B9
:100F0000453D310041542B43574D4F44453D320040
:100F100041542B43574D4F44453D330010B54FF4DA
:100F20008041064800F004FC0548FFF7D5FD4FF46A
:100F30008041024800F0FEFB10BD0000002001408F
:100F400020A107002DE9F04186B007460C46154662
:100F50001E464FF000083FB1224614A1144803F08A
:100F60009AFE4FF001081CE0052E06DAAB1C324653
:100F700010A101A804F098FD04E0AA1C12A101A888
:100F800004F092FD4FF47A73002213A101A8FFF739
:100F9000E3FD4FF47A73002210A12046FFF7DCFD39
:100FA0008046404606B0BDE8F08100002573000091
:100FB0000048004041542B43495053454E443D2581
:100FC000642C25640000000041542B4349505345D4
:100FD0004E443D25640000003E20000053454E4431
:100FE000204F4B0000B585B00121880402F078FB4A
:100FF0000121082002F084FB4FF48060ADF810005E
:1010000018208DF8130003208DF8120004A91A4847
:1010100000F0FAFA4FF40060ADF8100004208DF8EB
:10102000130004A9144800F0EFFA4FF4E1300090E7
:101030000020ADF80400ADF80600ADF80800ADF8EA
:101040000C000C20ADF80A0069460C4803F0AEFD18
:10105000012240F22551094803F083FD012240F2AC
:101060002441064803F07DFD00F00AF80121034801
:1010700003F0F4FC05B000BD000C01400048004046
:1010800008B54FF4A06001F0A5FF27208DF80000FF
:1010900000208DF801008DF8020001208DF803007A
:1010A000684601F05FFF08BD10B54FF4FA730022E7
:1010B00007A108A0FFF750FD08B9002010BD4FF4AC
:1010C000FA7308A202A108A0FFF746FDF6E70000A8
:1010D0004F4B000041542B4349504D4F44453D3147
:1010E000000000003E00000041542B43495053458E
:1010F0004E4400001CB5012000F0C0F800284CD080
:101100004FF40051254800F00AFB012821D10320AB
:10111000234908704FF6E07022490880084600888D
:1011200001F016FC3123F0220021084600F016FEE3
:101130003223F0223021002000F010FE00201AA1FE
:1011400030231A46CDE900100146602000F0A6FECB
:1011500020E00020124908704FF4FC60114908801B
:101160000846008801F0F4FB3123F02200210846F4
:1011700000F0F4FD3223F0223021002000F0EEFDDB
:1011800000200AA130231A46CDE900100146602054
:1011900000F084FE012000F06BF81CBD001001403F
:1011A000680000202A0000204C4B0000494E00003F
:1011B0001CB54FF4005000F061F800284DD001211B
:1011C000264800F0ACFA012821D1032024490870F8
:1011D0004FF6E070234908800846008801F0B8FB0C
:1011E0003123F0220021084600F0B8FD3223F0221E
:1011F0003021002000F0B2FD00201BA130231A4650
:10120000CDE900100146602000F048FE21E00120F9
:10121000134908701F20134908800846008801F010
:1012200097FB31234FF4A0720021084600F096FD91
:1012300032234FF4A0723021002000F08FFD0020F7
:101240000AA130231A46CDE900100146542000F0CF
:1012500025FE4FF4005000F00BF81CBD00080140C3
:10126000680000202A0000204C4B00004F5554001D
:101270000149086070470000140401400146002045
:101280000022074B1B6803EA0102054B14331B685D
:101290000B4013B10AB1012000E0002070470000AC
:1012A00000040140002123498279002A3AD00A46ED
:1012B000126803689A430B461A600A1D1268036895
:1012C0009A430B1D1A60027911440A6803681A4395
:1012D0000A60184A0832126803689A43154B0833AB
:1012E0001A601A1D126803689A43124B0C331A6075
:1012F0004279102A0ED11A1F126803681A430D4B47
:1013000008331A601A1D126803681A43094B0C331C
:101310001A600DE00749427911440A6803681A43CC
:101320000A6005E0027911440A6803689A430A607A
:1013300070470000000401400EB50121052002F0B5
:10134000DFF901F0F8FD0120ADF8080004208DF868
:101350000B0002A9194800F057F90021084600F0D7
:1013600033F90120009000208DF8040008208DF84A
:10137000050001208DF806006846FFF793FF4FF443
:101380000050ADF8080004208DF80B0002A90C48AD
:1013900000F03AF90D21022000F016F94FF4005048
:1013A000009000208DF8040008208DF80500012031
:1013B0008DF806006846FFF775FF0EBD0008014076
:1013C0000010014051B18200A2F1C042126842F007
:1013D00001038200A2F1C042136009E08200A2F181
:1013E000C0421268034B1A408300A3F1C0431A6045
:1013F00070470000FEFF0F00D0E901121143C268E0
:101400001143026911434269114382691143C26960
:101410001143026A1143426A1143826A1143C26A4C
:101420001143026B114302689200A2F1C0421160A5
:10143000816808290BD101688900A1F1C0410968C0
:1014400041F0400201688900A1F1C0410A60416B8E
:101450000968426B526841EA0211426B926841EAA4
:101460000221426B928941EA0241426B128A41EAAF
:101470000251426B127D41EA0261426B9269114353
:101480000268521C9200A2F1C0421160C16AB1F51B
:10149000804F1BD1816B0968826B526841EA02114F
:1014A000826B926841EA0221826B128A41EA025100
:1014B000826B127D41EA0261826B9269114302687C
:1014C0009200A2F1C042C2F8041107E06FF070422E
:1014D00001688900A1F1C041C1F80421704710B52D
:1014E00000F028F800F002F810BD00000EB5012150
:1014F000022002F0F5F86320ADF8040041F61F4029
:10150000ADF800000020ADF80600ADF802008DF83F
:1015100008006946064803F025F80121044802F056
:10152000F5FF01221146024803F013F80EBD00003A
:101530000004004008B51D208DF8000002208DF841
:10154000010000208DF8020001208DF8030068469C
:1015500001F008FD08BD10B500F026F800F001F814
:1015600010BD0EB50121084602F0BAF842F20F7024
:10157000ADF8040041F61F40ADF800000020ADF8C2
:101580000600ADF802008DF8080069464FF0804073
:1015900002F0E8FF0121880702F0B8FF012211469E
:1015A000900702F0D6FF0EBD08B51C208DF8000094
:1015B00002208DF8010001208DF802008DF8030053
:1015C000684601F0CFFC08BD30B500228B071C0F28
:1015D0000F2303FA04F20B4B8C1053F8243093437F
:1015E000084C8D1044F8253023468C1053F82430D5
:1015F0008C07240F00FA04F42343024C8D1044F8A6
:10160000253030BD080001402DE9F041024600259B
:101610000026002000230024002791F803C00CF0CE
:101620000F0591F803C00CF0100CBCF1000F03D0B3
:1016300091F802C04CEA050591F800C0BCF1000F1A
:1016400031D0146800202BE04FF0010C0CFA00F3AD
:10165000B1F800C00CEA03069E4220D183004FF08F
:101660000F0C0CFA03F7BC4305FA03FC4CEA040424
:1016700091F803C0BCF1280F06D14FF0010C0CFA11
:1016800000FCC2F814C00AE091F803C0BCF1480F96
:1016900005D14FF0010C0CFA00FCC2F810C0401C40
:1016A0000828D1D31460B1F800C0BCF1FF0F34DDBD
:1016B000546800202EE000F1080C4FF0010808FAF1
:1016C0000CF3B1F800C00CEA03069E4221D183005E
:1016D0004FF00F0C0CFA03F7BC4305FA03FC4CEA7D
:1016E000040491F803C0BCF1280F05D100F1080CE7
:1016F00008FA0CF8C2F8148091F803C0BCF1480F46
:1017000007D100F1080C4FF0010808FA0CF8C2F8F4
:101710001080401C0828CED35460BDE8F0810246FA
:10172000002093680B400BB1012000E000207047BF
:1017300041617047016170472DE9F04180460C46D8
:101740001048007820B902F0CFFA01200D49087046
:101750002512E6B2A5F1A101C1EB011202EB411184
:1017600006EB4101A1390802C11700EB5171CF10FE
:10177000054839182022404602F0FCF90020BDE857
:10178000F0810000540000200030180070B50546BC
:1017900000240DE01E4850F824102846FEF7F6FC01
:1017A00008B1012000E0002000B103E0601CC4B2D9
:1017B000062CEFDB00BF062C26D2DFE804F003077F
:1017C0000B0F1316002004F0DFFC1EE0012004F0D4
:1017D000DBFC1AE0022004F0D7FC16E0032004F042
:1017E000D3FC00BF04F058FD0FE004200949086055
:1017F000012008600848FFF76FF904200549091D1A
:1018000008600120086000E000BF00BF70BD00005C
:101810007C000020101C014020A1070000BFFEE753
:10182000B8B00026642117A8FEF7A5FC20210EA859
:10183000FEF7A1FC6FE2F848B0F80004C00B40B31B
:1018400000270DE0F448C15DF44803F020FA00BF22
:101850004021F24803F04EF90028F9D0781C87B2F5
:10186000ED48B0F80004C0F30E00B842EADCEA48E4
:10187000B0F800046FF30E00E749A1F80004084631
:10188000B0F8000420F40040A1F800040846FFF777
:101890007DFF0DA9262001F0A0FD0C90262804D084
:1018A0000DA9262001F099FD0C900C982628C1D195
:1018B0000DA801F044FC2628BCD12023F0224021B1
:1018C000002000F04BFA0220D549086002F06CF8C5
:1018D0008046FEF7DAFE05462A46D2A130A804F07B
:1018E000E3F801F019F8C08800EB400040044FEA2B
:1018F000104830A9404600F09DFA1C2D01DD46F04D
:101900000806CC480078012878D10DA801F0D4FD54
:101910000DABC94A1221602001F04AFCC74801689A
:10192000122003F03DFA16A9122001F063FF2628C9
:1019300062D14FF461611698B0FBF1F201FB120025
:101940003C21B0FBF1F201FB12084FF461611698E3
:10195000B0FBF1F201FB12003C21B0FBF1F94FF4B6
:1019600061611698B0FBF1FA4B465246B4A10EA83D
:10197000CDF8008004F098F800F0CEFFC08800EBAE
:1019800080001FFA80F80EA9404600F053FA4FF489
:1019900061611698B0FBF1F201FB12003C21B0FB33
:1019A000F1F201FB12084FF461611698B0FBF1F2FD
:1019B00001FB12003C21B0FBF1F94FF46161169874
:1019C000B0FBF1FACDE902A9CDE904859DF8370015
:1019D0009DF83610CDE900109DF835309DF8342083
:1019E0009CA117A804F060F80523642217A9012020
:1019F000FFF7A8FA01F0ADFC82E1FFE78D4800781F
:101A000000287DD10DA801F057FD0DAB8A4A1121A8
:101A1000602001F0CDFB89480168112003F0C0F976
:101A200016A9112001F0E6FE2628E5D183480068BA
:101A30004FF46161B0FBF1F201FB12003C21B0FBFD
:101A4000F1F201FB12087D4800684FF46161B0FBC0
:101A5000F1F201FB12003C21B0FBF1F9774800687C
:101A60004FF46161B0FBF1FA4B46524687A10EA8D4
:101A7000CDF8008004F018F800F04EFFC088800414
:101A80004FEA10480EA9404600F0D4F916A91220DA
:101A900001F0B0FE2628AFD1684800681699441AB4
:101AA000B4F1804F00D901244FF46160B4FBF0F130
:101AB00000FB11403C21B0FBF1F201FB12084FF496
:101AC0006160B4FBF0F100FB11403C21B0FBF1F987
:101AD0004FF46160B4FBF0FA4B46524671A10EA878
:101AE000CDF8008003F0E0FF00F016FFC08800EBA7
:101AF00080001FFA80F80EA9404600F09BF900E034
:101B00005BE04FF46160B4FBF0F100FB11403C215D
:101B1000B0FBF1F201FB12084FF46160B4FBF0F18D
:101B200000FB11403C21B0FBF1F00B904FF46160E1
:101B3000B4FBF0F9414800684FF46161B0FBF1F289
:101B400001FB12003C21B0FBF1F201FB120A3B4801
:101B500000684FF46161B0FBF1F201FB12003C211F
:101B6000B0FBF1FB354800684FF46161B0FBF1F068
:101B70000A900B98CDE90590CDE907859DF83710BF
:101B80000A98CDE903BACDE901109DF8360000901E
:101B90009DF835309DF83420484917A803F084FF9C
:101BA0000523642217A90120FFF7CCF9032C01D9E2
:101BB00046F0010601F0CDFBA2E01E4800780328A4
:101BC00028D10DA801F078FC9DF837009DF836105B
:101BD000CDE900109DF835309DF8342038A10EA8CD
:101BE00003F062FF00F098FEC08880044FEA1048BE
:101BF0000EA9404600F01EF93A4802689DF83700E9
:101C00009DF83610CDE9010200919DF835309DF820
:101C1000342069E074E00000704500200038014085
:101C2000141C014074656D7075747572653A256495
:101C30000000000068000020740000206400002004
:101C400054696D653A2564682025646D20256473A8
:101C5000000000004F55543A69642E253032582553
:101C600030325825303258253032583B74696D6512
:101C70002E25643A25643A25643B74656D7065725F
:101C800061747572652E256400000000456E7465F0
:101C9000722054696D653A2564682025646D20259D
:101CA00064730000486F77206C6F6E673A25646834
:101CB0002025646D2025647300000000189E000834
:101CC00054686520436172642049442069733A2056
:101CD0002530325825303258253032582530325888
:101CE00000000000700000200BA117A803F0DCFE2C
:101CF0000523642217A90120FFF724F901F029FB2D
:101D000002200D4908601EB1304604F0E7F901E0F9
:101D100004F0C2FA00268EE54C4B3A69642E253059
:101D200032582530325825303258253032583B73DE
:101D30006E6F2E2575000000101C014010B5044682
:101D400024B140210448FFF7F3FC03E0402102489E
:101D5000FFF7F0FC10BD0000002001402DE9F0412C
:101D600006460F4614461D462B4622463946304647
:101D700000F074FB04FB05F00249098800F01FFA2B
:101D8000BDE8F0813A00002001B502E00098401E55
:101D9000009000980028F9D108BD00002DE9F05FFF
:101DA000804689461646A6F120001FFA80FA1E4991
:101DB000096889881C4A1268D28801FB02F0C117A1
:101DC00000EB5171C1F3C7071748006800680AFBB0
:101DD000070B15480068C388134800688288494685
:101DE000404600F03BFB2C2000F0BCFC002416E039
:101DF000002510E01BF8040080212941084020B193
:101E00000A48008800F0B2FC03E00948008800F0AE
:101E1000ADFC681CC5B2082DECDB601CC4B2BC4232
:101E2000E6DBBDE8F09F0000340000203800002011
:101E30003A00002070B504460D46002624E03046E6
:101E4000134909688988084412490988884205DDD0
:101E500000260F480068C088204484B220460C4900
:101E60000968C98808440C490988884201DD0026B0
:101E700000242A7821463046FFF790FF6D1C044865
:101E800000688088304486B228780028D7D170BD99
:101E9000340000202C0000202E0000202DE9F04FFF
:101EA0008FB00646884614469946DDE9185B2746FA
:101EB00069E03046384437490988884204DD002605
:101EC00008EB09001FFA80F8404648443249098867
:101ED000884201DD0026B0462878802825DD274687
:101EE000B5F800A04FEA0A2000EB2A201FFA80FA7A
:101EF000514605A8FFF720FC012105AA0E984B4684
:101F0000CDE9002002913A461021084600F032FC4B
:101F100022484B463A464146CDE9000B304600F098
:101F200041F8F01986B2AD1C2DE0204604EBD071CB
:101F3000C1F34F0728782038C0B20D90002318480D
:101F4000C288DDE90D015043154A92885043C217FB
:101F5000049000EB5270124A126802EBE0008DE828
:101F60000B004B463A461821102000F003FC0B48AA
:101F70004B463A464146CDE9000B304600F012F898
:101F8000F01986B26D1C2878002892D10FB0BDE8F8
:101F9000F08F00002C0000202E0000207001002097
:101FA000440000202DE9F05F81468A4614461D4614
:101FB000DDE90A6B0027B8462B46224651464846C3
:101FC00000F04CFA2C2000F0CDFB00BF14E04FF0E5
:101FD00000080EE016F8011B594504D10848008896
:101FE00000F0C4FB03E00748008800F0BFFB08F1E5
:101FF0000108A045EED37F1CAF42E8D3BDE8F09FB7
:102000003A0000203800002070B504460D4604F167
:102010000A018AB2143988B22B46294600F00AF820
:1020200005F10A0083B2143881B22246204600F03E
:1020300001F870BD2DE9FF4F83B081464FF0000AD3
:10204000D3460598A0EB090504990698461ACDF8E1
:10205000049004980090002D01DD012705E00DB9E2
:10206000002702E04FF0FF376D42002E02DD4FF0F7
:10207000010806E016B94FF0000802E04FF0FF3803
:102080007642B54201DD2C4600E034460020029045
:1020900019E0DDE9001000F049FBAA44B344A24571
:1020A00005DDAAEB040A0198384480B20190A345EB
:1020B00005DDABEB040B0098404480B20090029821
:1020C000401C80B20290611C02988842E1DD07B09A
:1020D000BDE8F08F2DE9F04104460D4616461F4637
:1020E000DDF81880B8F1000F0CD03B463246294687
:1020F000204600F0B3F906FB07F01749098800F005
:102100005EF827E0A019401E82B22B4629462046E1
:10211000FFF790FFE819401E83B2A019401E82B25B
:10212000E819401E81B22046FFF784FFE819401EDF
:1021300083B2224629462046FFF77CFFE919491E53
:102140008BB2A119491E8AB2A119491E88B229462B
:10215000FFF770FFBDE8F0813800002000B597B0B0
:102160000121080201F0ACFA012001900420039043
:1021700080060790002002900490059006900620AB
:1021800008900020099008200A9010200B90002051
:102190000C900E900F9010904FF4805011900020F2
:1021A00012901390149001A81590169008A8FFF7AC
:1021B00023F901210620FFF705F917B000BD70B51E
:1021C00004460D4600262C2000F0CCFA00BF03E0A8
:1021D000284600F0CBFA761CA642F9D370BD000069
:1021E00008B501214FF4B07001F08AFA03208DF890
:1021F000020018208DF803004FF48040ADF8000075
:1022000069465B48FFF700FA4FF40040ADF8000064
:1022100069465748FFF7F8F90120ADF80000694614
:102220005348FFF7F1F90220ADF800006946504825
:10223000FFF7EAF98020ADF8000069464D48FFF746
:10224000E3F94FF48070ADF8000069464948FFF7A4
:10225000DBF94FF40070ADF8000069464548FFF720
:10226000D3F94FF48060ADF8000069464148FFF7AC
:10227000CBF94FF40060ADF8000069463D48FFF728
:10228000C3F94FF48050ADF8000069463948FFF7B4
:10229000BBF94FF40050ADF8000069463548FFF730
:1022A000B3F94FF48040ADF8000069463148FFF7BC
:1022B000ABF94FF40040ADF8000069462D48FFF738
:1022C000A3F94FF48070ADF8000069462848FFF785
:1022D0009BF94FF40070ADF8000069462448FFF701
:1022E00093F94FF48060ADF8000069462048FFF78D
:1022F0008BF903208DF8020018208DF803001020C0
:10230000ADF8000069461A48FFF77EF92020ADF8C5
:10231000000069461648FFF777F94FF48050ADF892
:10232000000069461448FFF76FF90420ADF800007B
:1023300069461048FFF768F910208DF80300032064
:102340008DF802004FF40060ADF8000069460A48BD
:10235000FFF75AF910208DF8030003208DF80200D2
:102360004020ADF8000069460348FFF74DF908BD6D
:1023700000140140001801400020014010B504463F
:10238000072C00DD10BD28480470204604EBD071F6
:102390004910A4EB410139B9F020244908804FF4D9
:1023A000A0702349088006E04FF4A0701F49088000
:1023B000F0201F490880362000F0D4F9082141EAB6
:1023C000441000F0D3F92A2000F0CCF9002000F0EE
:1023D000CDF9002000F0CAF914490988491EC1F35B
:1023E000072000F0C3F911490978491EC8B200F06E
:1023F000BDF92B2000F0B6F9002000F0B7F900205D
:1024000000F0B4F90A490988491EC1F3072000F019
:10241000ADF907490978491EC8B200F0A7F92C2088
:1024200000F0A0F900BFADE7300000202C00002034
:102430002E00002010B5FFF7D3FEFFF78FFE01201E
:10244000FFF77CFC00F052F900F038F80248007801
:10245000FFF794FF10BD0000300000202DE9F0418F
:1024600004460D4616461F462A2000F07BF920122E
:1024700000F07CF9E0B200F079F9A119491EC1F32E
:102480000F2000F073F9A119491EC8B200F06EF9CF
:102490002B2000F067F9281200F068F9E8B200F08C
:1024A00065F9E919491EC1F30F2000F05FF9E91938
:1024B000491EC8B200F05AF9BDE8F08110B5CF202E
:1024C00000F050F9002000F051F9812000F04EF9A1
:1024D000302000F04BF9ED2000F044F9642000F0CA
:1024E00045F9032000F042F9122000F03FF9812065
:1024F00000F03CF9E82000F035F9852000F036F9CD
:10250000102000F033F9782000F030F9CB2000F0F3
:1025100029F9392000F02AF92C2000F027F90020B1
:1025200000F024F9342000F021F9022000F01EF917
:10253000F72000F017F9202000F018F9EA2000F049
:1025400011F9002000F012F9002000F00FF9B1207D
:1025500000F008F9002000F009F91B2000F006F94E
:10256000B62000F0FFF80A2000F000F9A22000F0E9
:10257000FDF8C02000F0F6F8352000F0F7F8C12093
:1025800000F0F0F8112000F0F1F8C52000F0EAF8B2
:10259000452000F0EBF8452000F0E8F8C72000F0F7
:1025A000E1F8A22000F0E2F8F22000F0DBF80020D1
:1025B00000F0DCF8262000F0D5F8012000F0D6F875
:1025C000E02000F0CFF80F2000F0D0F8262000F037
:1025D000CDF8242000F0CAF80B2000F0C7F80E2038
:1025E00000F0C4F8092000F0C1F8542000F0BEF853
:1025F000A82000F0BBF8462000F0B8F80C2000F04E
:10260000B5F8172000F0B2F8092000F0AFF80F205D
:1026100000F0ACF8072000F0A9F8002000F0A6F8C0
:10262000E12000F09FF8002000F0A0F8192000F051
:102630009DF81B2000F09AF8042000F097F8102075
:1026400000F094F8072000F091F82A2000F08EF8AE
:10265000472000F08BF8392000F088F8032000F0C4
:1026600085F8062000F082F8062000F07FF8302080
:1026700000F07CF8382000F079F80F2000F076F8B0
:10268000362000F06FF8C82000F070F82A2000F023
:1026900069F8002000F06AF8002000F067F80020D8
:1026A00000F064F8EF2000F061F82B2000F05AF8F9
:1026B000002000F05BF8002000F058F8012000F046
:1026C00055F83F2000F052F83A2000F04BF8552022
:1026D00000F04CF8112000F045F80348FFF754FBD8
:1026E000292000F03FF810BDFCBF020010B54FF4E8
:1026F00000610848FFF71CF840F6FF20FFF744FB95
:102700004FF400610348FFF715F840F6FF20FFF78C
:102710003BFB10BD0020014070B504460D4601236F
:102720001A4629462046FFF799FE70BD70B505464A
:102730000C460948008885420CDA08480088844223
:1027400008DA21462846FFF7E7FF054801880120FF
:10275000FFF735FD70BD00002C0000202E0000208A
:10276000380000204FF0D841088070474FF0DA4120
:10277000088070472DE9FC4F0C461E464FEA004A80
:102780009AFBF2FA0AF1010ACDF804A04FEA044AD2
:102790009AFBF6FA0AF1010ACDF800A04FF0000901
:1027A000202801DBBDE8FC8F00FB04FABAF1000F22
:1027B00000D1F7E700FB04FABAF5806F00DBF1E720
:1027C00002FB06FABAF1000F00D1EBE702FB06FAB2
:1027D000BAF5804F00DBE5E7454BDDF834A0BAF1F0
:1027E000000F2BD100211FE0002517E0DDF82CA001
:1027F0001AF801A04FF0800B4BFA05FB0AEA0B0A0E
:10280000BAF1000F02D04FF0010A01E04FF0000AC8
:1028100003F801AB05F1010A1FFA8AF5082DE5DB83
:1028200001F1010A1FFA8AF104FB00FA4FEAEA7B80
:102830000AEB5B7BB1EBEB0FD6DB2AE000211FE05C
:10284000002517E0DDF82CA01AF801A04FF0800B4E
:102850004BFA05FB0AEA0B0ABAF1000F02D04FF05F
:10286000010A01E04FF0000A03F801AB05F1010A8B
:102870001FFA8AF5082DE5DB01F1010A1FFA8AF13A
:1028800004FB00FA4FEAEA7B0AEB5B7BB1EBEB0F50
:10289000D6DB174B174F4FF0000C1AE04FF0000A31
:1028A0004FEA194B00FB0B3ED0460AE00EEB1A4BE9
:1028B0009BF800B007F808B0DDF804B0DA4408F17E
:1028C00001089045F2D3DDF800B0D94417440CF16B
:1028D000010CB445E2D3DFF81CA0CDF830A0DDF840
:1028E00030A00AF1010ACDF830A000BF5AE700007D
:1028F000704100207001002070B5044600F00CF813
:10290000C5882B460348028821460020FFF726FA97
:1029100070BD00002C0000200148006870470000D6
:102920003400002001490880704700003A00002070
:10293000024A1080024A11807047000038000020CF
:102940003A00002001490860704700003400002070
:1029500001490880704700003800002008B50121B7
:10296000082000F0CDFE2020ADF8000010208DF8EA
:10297000030003208DF8020069460F48FEF744FE6D
:102980000120ADF8000069460B48FEF73DFE02202D
:10299000ADF8000069460848FEF736FE20210648DB
:1029A000FEF7C8FE01210448FEF7C4FE02210248DA
:1029B000FEF7C0FE08BD0000000C014010B5044643
:1029C000412C24D108210846FEF778F83D2111203A
:1029D00002F026FA8621172002F022FA7F21262013
:1029E00002F01EFA1E212D2002F01AFA00212C20DE
:1029F00002F016FA8D212A2002F012FA3E212B2035
:102A000002F00EFA0220FEF767F800F08BFB10BD13
:102A100008B50121802000F073FE0120ADF8000010
:102A200010208DF8030003208DF8020069460F483E
:102A3000FEF7EAFD0220ADF8000069460B48FEF7FC
:102A4000E3FD0420ADF8000069460848FEF7DCFD10
:102A500001210648FEF76CFE02210448FEF768FEDD
:102A600004210248FEF764FE08BD0000001C01407E
:102A700000BFFEE770B50546052404E020200749A5
:102A80000855601CC4B2064800788442F6DD052073
:102A90000349087000F02CFA70BD0000944E00202D
:102AA0009800002010B5404909780F297ADA0146CC
:102AB0008A680A2A74D2DFE802F005101B26313C2E
:102AC00047525D683022394B374C24781A55364AC4
:102AD0001278521C344B1A7062E03122334B324C64
:102AE00024781A55304A1278521C2F4B1A7057E02E
:102AF00032222E4B2C4C24781A552B4A1278521C19
:102B0000294B1A704CE03323284A274C247813555C
:102B1000254A1278521C244B1A7041E03422234B70
:102B2000214C24781A55204A1278521C1E4B1A70D8
:102B300036E035221D4B1C4C24781A551A4A12785F
:102B4000521C194B1A702BE03622184B164C247865
:102B50001A55154A1278521C134B1A7020E037226E
:102B6000124B114C24781A550F4A1278521C0E4BF6
:102B70001A7015E038230D4A0B4C247813550A4A75
:102B80001278521C084B1A700AE03922074B064C87
:102B900024781A55044A1278521C034B1A7000BF4D
:102BA00000BF00BF10BD000098000020944E002020
:102BB000F0B589B007460025202101A8FDF7DBFA12
:102BC0000E480078401EC4B201260BE0304600F0EB
:102BD000F9FC0B49095D303901FB0055601EC4B298
:102BE000701CC6B2052CF1DA294606A002F04CFF93
:102BF000284601F053FA09B0F0BD0000980000200B
:102C0000944E0020736E6F3A25750D0A0000000087
:102C10002DE9FC4105462C46207B40BB4FF6FF7159
:102C20004CF21860FFF784FE01200090E688678868
:102C3000F61BB3B2A6882788F61BB2B26188384665
:102C4000FFF748FA4CF218614FF40470FFF770FE7A
:102C500000200090E6886788F61BB3B2A688278814
:102C6000F61BB2B261883846FFF734FA26E04FF619
:102C7000FF710846FFF75CFE01200090E688678838
:102C8000F61BB3B2A6882788F61BB2B26188384615
:102C9000FFF720FA4FF6FF714FF40470FFF748FE7C
:102CA00000200090E6886788F61BB3B2A6882788C4
:102CB000F61BB2B261883846FFF70CFAA0680C2800
:102CC0001AD2DFE800F0061A2E42566A7E92A6BAA1
:102CD000CEE24CF218610020FFF72AFE002078A116
:102CE000CDE900106288083291B22288203290B279
:102CF00018231A46FFF7D2F8DBE04CF218610020E7
:102D0000FFF716FE00206FA1CDE90010628808329F
:102D100091B22288203290B218231A46FFF7BEF8EB
:102D2000C7E04CF218610020FFF702FE002066A108
:102D3000CDE900106288083291B22288203290B228
:102D400018231A46FFF7AAF8B3E04CF218610020E6
:102D5000FFF7EEFD00205DA1CDE90010628808328A
:102D600091B22288203290B218231A46FFF796F8C3
:102D70009FE04CF218610020FFF7DAFD002054A11B
:102D8000CDE900106288083291B22288203290B2D8
:102D900018231A46FFF782F88BE04CF218610020E6
:102DA000FFF7C6FD00204BA1CDE900106288083274
:102DB00091B22288203290B218231A46FFF76EF89B
:102DC00077E04CF218610020FFF7B2FD002042A12D
:102DD000CDE900106288083291B22288203290B288
:102DE00018231A46FFF75AF863E04CF218610020E6
:102DF000FFF79EFD002039A1CDE90010628808325E
:102E000091B22288203290B218231A46FFF746F872
:102E10004FE04CF218610020FFF78AFD002030A13E
:102E2000CDE900106288083291B22288203290B237
:102E300018231A46FFF732F83BE04CF218610020E5
:102E4000FFF776FD002027A1CDE900106288083247
:102E500091B22288203290B218231A46FFF71EF84A
:102E600027E04CF218610020FFF762FD00201EA150
:102E7000CDE900106288083291B22288203290B2E7
:102E800018231A46FFF70AF813E04CF218610020E5
:102E9000FFF74EFD002015A1CDE900106288083231
:102EA00091B22288203290B218231A46FEF7F6FF1C
:102EB00000BF00BF0020FFF735FDBDE8FC8100002A
:102EC000300000003100000032000000330000003C
:102ED000340000003500000036000000370000001C
:102EE00038000000390000002300000058000000F6
:102EF00010B50C480088FFF72BFDFFF70DFDC088CB
:102F0000C0EBC00084B208492046FEF793FFFFF7EC
:102F100003FDC088C0EBC00084B204A12046FEF7C8
:102F200089FF10BD96000020944E0020736E6F3A0A
:102F300000000000704708B506208DF80000012051
:102F40008DF8010000208DF8020001208DF80300AB
:102F5000684600F007F828208DF80000684600F069
:102F600001F808BD70B5002100230F22C47804B316
:102F7000154C246804F4E064C4F5E064210AC1F14E
:102F80000403CA40447804FA03F1847814402143CE
:102F900009010E4C0678A155047804F01F050124A0
:102FA000AC4005786D11AD0005F1E025C5F8004194
:102FB00009E0047804F01F050124AC40044D0678B4
:102FC000761145F8264070BD0CED00E000E400E00D
:102FD00080E100E002490143024A116070470000AD
:102FE0000000FA050CED00E0FCB502462F2300BFFF
:102FF00000208DF805008DF804008DF803008DF891
:10300000020001208DF8010007208DF800002F2319
:1030100000250521002409E0581EC3B2072C02DA5E
:10302000601CC4B202E00024481EC1B2505C80277C
:103030002741384008B90029EEDCA3F10800C5B2E9
:103040001EE0052118E0481E1DF8000000F0800079
:1030500018B1002901DD012600E000261DF801005D
:103060004006000E0DF801001DF801003044C0B20A
:103070000DF80100481EC1B2FF29E4DB681EC5B28D
:10308000002DDED1002106E0505C1DF80170784073
:103090005054481CC1B20529F6DD082BA8DC107875
:1030A000FCBD000070B506463046FFF767F900200A
:1030B000FFF738FC154803881548028800210846A8
:1030C000FEF74CFE01F008FB0520124908700025B0
:1030D00004E0202010494855681CC5B20E2DF8DDCB
:1030E00000240CE004EB44020C4B03EBC20004EBA5
:1030F000440203EBC20211698847601CC4B20C2C65
:10310000F0DB07480088FFF723FC70BD2E0000208D
:103110002C00002098000020944E0020744D0020C8
:103120009600002010B5142000F0A4FB044604F023
:10313000030018B90321142001F08CF810BDF0B57C
:1031400087B00546002708210846FDF7B7FC002197
:103150000D2001F065FE80210E20FDF7AFFC9320CD
:103160008DF8080020208DF8090001A802AB02228A
:1031700002A900900C2000F053F80646262E10D12C
:10318000002407E002A8005D285502A8005D474022
:10319000601CC4B2042CF5DB02A8005DB84200D06C
:1031A000BB2680210E2001F055F8304607B0F0BD57
:1031B0002DE9F04387B006460F46904699468DF8B4
:1031C00008608DF80970002406E018F8041002AABF
:1031D000A01C1154601CC4B2062CF6DB002407E0CE
:1031E00019F8041002AA04F108001154601CC4B2BA
:1031F000062CF5DB01A802AB0C2202A900900E20E0
:1032000000F00EF80546262D05D1082000F032FB0F
:1032100000F0080000B9BB25284607B0BDE8F083E0
:103220002DE9FE4F0646884691469A46DDF830B0B5
:10323000BB2002900020019000900C2E06D00E2E94
:1032400009D1122001901020009005E07720019014
:103250003020009000E000BF00BF019840F08001E6
:10326000022001F0DDFD80210420FDF727FC002174
:10327000012001F0D5FD80210A2000F0EBFF0025A0
:1032800005E018F80510092001F0CAFD6D1C4D4538
:10329000F7D33146012001F0C3FD0C2E03D180216C
:1032A0000D2000F0D7FF4FF47A7500BF042000F026
:1032B000E1FA04466D1E35B104F0010018B900981A
:1032C00020400028F2D080210D20FDF7F7FB95B3B8
:1032D000062000F0CFFA00F01B0068BB2620029009
:1032E0000198204000F0010008B1CC2002900C2E83
:1032F00024D10A2000F0BEFA04460C2000F0BAFAED
:1033000000F007072FB1601E07EBC000CBF80000EC
:1033100002E0E000CBF8000004B90124122C00DD2B
:103320001224002505E0092000F0A4FA0AF805009F
:103330006D1CA542F7D301E0BB20029080210C2038
:1033400000F088FF0021012001F06AFD0298BDE82D
:10335000FE8F00B587B050208DF8080000208DF852
:1033600009000DF10A02022102A8FDF771FB01A874
:1033700002AB042202A900900C20FFF751FF262087
:1033800007B000BDF0B587B005460E4630208DF879
:1033900008008DF809500DF10A02022102A8FDF77C
:1033A00057FB01A802AB042202A900900C20FFF7F2
:1033B00037FF0746262F0CD10198902809D1002409
:1033C00004E002A8005D3055601CC4B2102CF8DB8C
:1033D00000E0BB27384607B0F0BD70B588B00546A1
:1033E0000C4608210846FDF769FB07210D2001F076
:1033F00017FD0321142000F02DFF8DF80C5002A8BA
:1034000003AB012203A900900C20FFF709FF064639
:10341000262E09D10298102806D19DF80C002070A4
:103420009DF80D00607000E0BB26304608B070BD0E
:1034300010B54FF480711F48FEF77CF90120FDF7AD
:103440004BFB4FF480711B48FEF772F90120FDF72A
:1034500043FB4FF480711748FEF76CF90120FDF72C
:103460003BFB0F21012001F0DBFC00BF012000F03D
:1034700001FA00F010000028F8D10120FDF72CFB24
:103480003D21112001F0CCFC1E212D2001F0C8FCB3
:1034900000212C2001F0C4FC8D212A2001F0C0FC69
:1034A0003E212B2001F0BCFC4021152001F0B8FC8E
:1034B00010BD00000020014070B588B00546932083
:1034C0008DF80C0070208DF80D0000208DF8120092
:1034D00000240BE0295D03AAA01C11549DF81200E2
:1034E000295D48408DF81200601CC4B2042CF1DB49
:1034F0000DF11302072103A8FDF7AAFA08210846D7
:10350000FDF7DCFA02A803AB092203A900900C2006
:10351000FFF786FE0646262E03D10298182800D112
:1035200000E0BB26304608B070BDF0B587B0064657
:103530000F46A0208DF808008DF809600DF10A02F1
:10354000022102A8FDF784FA01A802AB042202A915
:1035500000900C20FFF764FE0546262D08D1019847
:10356000042805D19DF8080000F00F000A2800D0BB
:10357000BB25262D22D1002404E0385D02A9085580
:10358000601CC4B2102CF8DB06AA102102A8FDF7BB
:103590005FFA01A802AB122202A900900C20FFF7EB
:1035A0003FFE0546262D08D10198042805D19DF837
:1035B000080000F00F000A2800D0BB25284607B0FD
:1035C000F0BD7047014601204A1ED1B204E000EB75
:1035D000800250004A1ED1B20029F8D17047000085
:1035E00010B500F00FF84FF480710448FEF7A2F810
:1035F00040210348FEF79EF810BD00000020014066
:103600000018014008B50121402000F079F8402061
:10361000ADF8000003208DF8020010208DF80300A3
:1036200069462448FDF7F0FF0121402000F068F8CA
:103630000820ADF8000003208DF8020010208DF85E
:10364000030069461B48FDF7DFFF0121082000F059
:1036500057F84FF48050ADF8000003208DF80200B9
:1036600010208DF8030069461348FDF7CDFF0121B6
:10367000080200F045F84FF40040ADF800000420C7
:103680008DF8030069460D48FDF7BEFF01210802D1
:1036900000F036F84FF48070ADF8000003208DF88C
:1036A000020010208DF8030069460448FDF7ACFFC6
:1036B00008BD000000180140000C0140002001403E
:1036C00029B1064A52690243044B5A6104E0034A95
:1036D00052698243014B5A6170470000001002405A
:1036E00029B1064AD2690243044BDA6104E0034A75
:1036F000D2698243014BDA6170470000001002403A
:1037000029B1064A92690243044B9A6104E0034AD4
:1037100092698243014B9A61704700000010024099
:1037200030B500210022002400232D4D6D6805F0E6
:103730000C0121B1042905D0082923D105E0294D28
:10374000056022E0274D05601FE0254D6D6805F4FA
:103750007012234D6D6805F48034022505EB92420A
:103760001CB9214D554305600BE01D4D6D6805F4F6
:1037700000351DB11C4D5543056002E0194D554300
:10378000056002E0174D056000BF00BF144D6D6875
:1037900005F0F0010909154D6B5C0568DD404560D9
:1037A0000F4D6D6805F4E061090A104D6B5C4568CA
:1037B000DD4085600A4D6D6805F46051C90A0B4D06
:1037C0006B5C4568DD40C560054D6D6805F44041A2
:1037D000890B074D6B5CC568B5FBF3F5056130BD22
:1037E0000010024000127A0000093D001400002081
:1037F000240000202DE9FF4107460D46BB266946FF
:103800003846FFF7BFFD0646262E03D0304604B0EB
:10381000BDE8F081002412E01DF8041004F1080056
:103820001DF80000814208D01DF80410201D1DF86D
:103830000000C043814200D003E0601CC4B2042CED
:10384000EADB00BF042C10D126269DF800009DF86D
:10385000011000EB01209DF8021000EB01409DF8E3
:10386000031000EB0160286002E0BB260020286006
:103870003046CCE770B504467E2000EA440040F0B4
:10388000800540210748FDF753FF284600F0B6FBAE
:1038900000F08AFB064640210248FDF74BFF304608
:1038A00070BD000000180140002107E0002201E087
:1038B000531C9AB28242FBDB4B1C99B20429F5DB04
:1038C0007047000008B501210820FFF719FF4FF4E9
:1038D0004070ADF8000014208DF8030003208DF82F
:1038E000020069460548FDF78FFE4FF480700349DA
:1038F000103108604000086008BD0000000C014065
:103900002DE9FC4F04460D464FF00009CA46CB4650
:103910006006040E00BF00BF00F000F9ABF101002B
:1039200000F0FF0BBBF1000F00D136E000F0D4F83F
:10393000204600F0B9F800B1EEE7284600F0B4F8F0
:1039400000B1E9E700F0C8F8611CC8B200F0ACF8BB
:1039500000B1E1E7002000F06BF88146002000F0A4
:1039600067F88246012000F063F8804600F0D6F840
:103970008DF805408DF80450601CC0B28DF803002E
:103980008DF802908DF801A000208DF800006846A7
:10399000FFF72AFB06464645BDD100BF49EA0A2784
:1039A0003846BDE8FC8F00002DE9F04707210020D4
:1039B000FFF7A6FF8246FCF75BFE0646074A084B68
:1039C000FCF76CFD04464FF06632064BFCF760FDD9
:1039D0008046FCF79AFEBDE8F08700007B14AE47F6
:1039E000E17A943F6612714010B54FF400700F49B0
:1039F00008600220FFF758FF4FF480700B49086001
:103A00000520FFF751FF09480838006800F40070EE
:103A100008B1012400E000244FF480700349091D1F
:103A200008600320FFF740FF204610BD100C014046
:103A300070B5064608250DE0FFF7D6FF20B16006F9
:103A4000040E44F0010403E06006040E04F0FE04DA
:103A5000681EC5B2002DEFD1304600F003F82046B5
:103A600070BD000010B5044624B94FF400700D4934
:103A7000086004E04FF400700A49091F0860022042
:103A8000FFF712FF4FF480700649091F08600620F7
:103A9000FFF70AFF4FF48070024908600320FFF728
:103AA00003FF10BD140C0140F0B5044608250CE0DE
:103AB00004F0800008B1012600E000263046FFF740
:103AC000D1FF6006040E681EC5B2002DF0D1FFF7CD
:103AD0008BFF07463846F0BD00B54FF400700E4925
:103AE00008600520FFF7E0FE4FF480700A49086087
:103AF0000520FFF7D9FE4FF400700749091D086043
:103B00000520FFF7D1FE4FF480700349091D0860BE
:103B10000520FFF7C9FE00BD100C014000B54FF4B1
:103B200080700D4908600520FFF7BEFE4FF400705D
:103B3000094908600520FFF7B7FE4FF48070064979
:103B4000091F08600520FFF7AFFE4FF4007002491F
:103B5000091F086000BD0000140C014021B102885B
:103B600042F04002028004E002884FF6BF731A4020
:103B70000280704770B505460C4616461021104865
:103B8000FDF7D6FD032000F07DF9C4F3074000F0F7
:103B900079F9C4F3072000F075F9E0B200F072F98A
:103BA00004E0FF2000F06EF928706D1C3000A6F1D3
:103BB00001018EB2F5D110210148FDF7BBFD70BDAA
:103BC000000801402DE9F05F07460E4614464FF00D
:103BD0000008C146C2460025AB4606F0FF0ACAF1FE
:103BE0000000C5B22046E11704EB1161C1F30728BC
:103BF000E11704EB11610912A4EB012101F0FF09A7
:103C0000BAF1000F20D1B8F1000F05D1224631469C
:103C1000384600F0C7F864E009E04FF4807231469E
:103C2000384600F0BFF806F5807607F580775FEA42
:103C30000800A8F1010101F0FF08EED14A46314623
:103C4000384600F0AFF84CE0B8F1000F18D1A945A4
:103C500010DDA9EB050000F0FF0B2A46314638467F
:103C600000F0A0F82E442F445A463146384600F062
:103C700099F836E022463146384600F093F830E0B5
:103C8000601B84B22046E11704EB1161C1F30728E1
:103C9000E11704EB11610912A4EB012101F0FF0906
:103CA0002A463146384600F07DF82E442F4409E07C
:103CB0004FF480723146384600F074F806F580768D
:103CC00007F580775FEA0800A8F1010101F0FF081D
:103CD000EED1B9F1000F04D04A463146384600F023
:103CE00061F8BDE8F09F000000B587B0012108032E
:103CF000FFF706FD0121C420FFF702FD1020ADF8FB
:103D0000040003208DF8060010208DF8070001A99B
:103D10002248FDF779FC2020ADF8040018208DF82A
:103D2000070001A91D48FDF76FFC4020ADF8040015
:103D300001A91A48FDF768FC8020ADF8040001A92C
:103D40001648FDF761FC10211448FDF7F3FC002034
:103D5000ADF808004FF48270ADF80A000020ADF80D
:103D60000C000220ADF80E000120ADF8100040025A
:103D7000ADF812000820ADF814000020ADF81600D0
:103D80000720ADF8180002A9054800F0EFF801215E
:103D90000348FFF7E3FE07B000BD00000008014044
:103DA0000030014070B505460C46164600F0C0F8DC
:103DB00010211548FDF7BCFC022000F063F8C4F3A5
:103DC000074000F05FF8C4F3072000F05BF8E0B2B2
:103DD00000F058F8B6F5807F04DD4FF480760BA034
:103DE00001F052FE03E0287800F04CF86D1C300022
:103DF000A6F101018EB2F6D110210348FDF79AFC1D
:103E000000F07CF870BD0000000801403C3C2D46ED
:103E10004C4153482D4552524F522D3E3E20535057
:103E2000495F464C4153485F5061676557726974FA
:103E30006520746F6F206C61726765210A00000055
:103E400010B5044600F074F800F058F810210C4842
:103E5000FDF76EFC202000F015F8C4F3074000F0D9
:103E600011F8C4F3072000F00DF8E0B200F00AF8F2
:103E700010210348FDF75EFC00F040F810BD000083
:103E80000008014010B504464FF4805019490860FD
:103E90000AE018490868411E164A116020B900203E
:103EA00000F0DAF8C0B210BD0221134800F050F85B
:103EB0000028EED02146104800F056F84FF480500C
:103EC0000C4908600AE00B490868411E094A116064
:103ED00020B9012000F0C0F8C0B2E4E70121064893
:103EE00000F036F80028EED0034800F03AF8C0B2EF
:103EF000D9E70000580000200030014010B5002430
:103F000010210A48FDF714FC0520FFF7BBFF00BF96
:103F1000FF20FFF7B7FF044604F001000028F7D1A7
:103F200010210248FDF706FC10BD0000000801400A
:103F300010B510210548FDF7FBFB0620FFF7A2FF97
:103F400010210248FDF7F6FB10BD000000080140FB
:103F50000246002013890B400BB1012000E0002035
:103F600070470146888970478181704710B50022EB
:103F7000028802F441520B884C8823438C882343E7
:103F8000CC8823430C8923434C8923438C892343C6
:103F9000CC8923431A430280838B4FF2FF74234062
:103FA00083830B8A038210BD70B500251DE0600677
:103FB000040E08210F48FDF7BBFB0220FCF78CFD27
:103FC0004FF400410C48FDF7AAFB012801D144F051
:103FD00001040220FCF780FD08210648FDF7AAFB3A
:103FE0000220FCF779FD681CC5B2082DDFDB2046F6
:103FF00070BD0000001801400020014070B504466B
:10400000002522E004F0800028B14FF480511048D0
:10401000FDF790FB04E04FF480510D48FDF788FB5D
:104020000220FCF759FD08210A48FDF781FB022018
:10403000FCF752FD08210748FDF77CFB0220FCF746
:104040004BFD6006040E681CC5B2082DDADB70BD9E
:10405000000C01400018014010B50446214602A0A2
:1040600001F012FD002010BD3C3C2D464C41534850
:104070002D4552524F522D3E3E2053504920B5C837
:10408000B4FDB3ACCAB1216572726F72436F6465DF
:10409000203D2025640A0000704700002DE9F04112
:1040A000A4B0044664210BA8FCF765F8202103A8FE
:1040B000FCF761F8214646A001F0E6FC02204749E2
:1040C0000860FFF771FC0646FCF7DFFA05462A4652
:1040D00043A103A801F0E8FCFEF71EFCC08800EB3A
:1040E00040004004060C03A93046FDF7A3FE4048FB
:1040F000007801282DD13F4800684FF46161B0FB82
:10410000F1F201FB12003C21B0FBF1F201FB1206BF
:10411000384800684FF46161B0FBF1F201FB120016
:104120003C21B0FBF1F7334800684FF46161B0FB0C
:10413000F1F84346224630A10BA8CDE9007602955E
:1041400001F0B2FC052364220BA90120FCF7FAFE62
:1041500036E02748007868BB264800684FF4616164
:10416000B0FBF1F201FB12003C21B0FBF1F201FBCC
:104170001206204800684FF46161B0FBF1F201FBC8
:1041800012003C21B0FBF1F71A4800684FF461615E
:10419000B0FBF1F84346224622A10BA8CDE90076F8
:1041A000029501F081FC052364220BA90120FCF794
:1041B000C9FE05E00E480078032801D124480460B8
:1041C00002200649091F086024B0BDE8F081000004
:1041D0003131736E6F3A25750D0A0000141C0140D1
:1041E00074656D7075747572653A25640000000021
:1041F0006800002064000020534E4F4F55543A731E
:104200006E6F2E25753B74696D652E25643A2564A5
:104210003A25643B74656D70657261747572652EC4
:1042200025640000534E4F494E3A736E6F2E25752C
:104230003B74696D652E25643A25643A25643B74A8
:10424000656D70657261747572652E25640000007D
:104250007000002070B505460C462846FFF70AFBA3
:10426000064646EA0401284600F0DAFD70BD10B5A6
:1042700000F002F810BD00000CB500200190009085
:104280003348006840F480303149086000BF30484E
:10429000006800F4003000900198401C01900098E4
:1042A00018B90198B0F5A06FF1D12948006800F461
:1042B000003010B10120009001E000200090009833
:1042C000012843D12348006840F0100021490860CC
:1042D0000846006820F0030008600846006840F0C7
:1042E000020008601A48406819494860084640685A
:1042F00048600846406840F480604860084640686E
:1043000020F47C1048600846406840F4E81048609B
:104310000846006840F08070086000BF0C480068E4
:1043200000F000700028F9D00948406820F0030030
:10433000074948600846406840F00200486000BFF6
:104340000348406800F00C000828F9D10CBD0000BB
:10435000001002400020024010B500F055F910BDD9
:1043600030B51A4800681A4AB0FBF2F1B1F1807F0B
:1043700001D301201DE021F07F40401E4FF0E022DC
:10438000506150170F22002807DA13071D0E114B3A
:1043900000F00F04241F1D5503E013071C0E0E4BE5
:1043A0001C5400BF00204FF0E022906107201061F4
:1043B000002008B100BFFEE74FF0E020006920F0C8
:1043C00001004FF0E021086130BD00000000002036
:1043D00040420F0018ED00E000E400E010B5134883
:1043E000006840F001001149086008464068104923
:1043F00008400E494860084600680E4908400B49CD
:1044000008600846006820F480200860084640687C
:1044100020F4FE0048604FF41F008860FFF727FF7C
:104420004FF000600449086010BD00000010024019
:104430000000FFF8FFFFF6FE08ED00E070B58EB05B
:104440000121880700F074F8012840D12148006854
:10445000401C20490860FEF75FFAC08800EB40006E
:1044600084B22046FEF748FA1A4800684FF46161AA
:10447000B0FBF1F201FB12003C21B0FBF1F201FBB9
:104480001204144800684FF46161B0FBF1F201FBC3
:1044900012003C21B0FBF1F50E4800684FF4616159
:1044A000B0FBF1F62B4632460BA101A8009401F0B7
:1044B000FBFAFEF731FAC08800EB400084B201A994
:1044C0002046FDF7B7FC0121880700F022F80EB066
:1044D00070BD00006400002054696D653A25646871
:1044E0002025646D202564730000000010B50121B3
:1044F000054800F01DF8012805D100F0CBFF01218F
:10450000014800F006F810BD00040040CA430282D2
:104510007047CA430282704721B1028842F001020B
:10452000028004E002884FF6FE731A400280704752
:1045300030B50246002000230024158A05EA010355
:10454000958905EA010413B10CB1012000E00020B7
:1045500030BD1AB183890B43838102E083898B4389
:1045600083817047002202881D4B98420ED01D4B5C
:1045700098420BD0B0F1804F08D01B4B984205D029
:104580001A4B984202D01A4B984204D14FF68F73BF
:104590001A404B881A43174B984207D0164B984243
:1045A00004D04FF6FF431A40CB881A4302808B8811
:1045B00083850B8803850A4B98420BD0094B9842A0
:1045C00008D00E4B984205D00D4B984202D00D4BAF
:1045D000984201D10B7A0386012383827047000041
:1045E000002C01400034014000040040000800405D
:1045F000000C00400010004000140040004001404A
:1046000000440140004801400448006820B10348CC
:104610000068401E01490860704700005C000020EF
:1046200070B505460E46002450E004EB44002949CD
:1046300001EBC0008088A8422CDB04EB440001EBB6
:10464000C000C088B04225DB04EB440001EBC00091
:104650004088B0421EDC04EB440031F83000A84230
:1046600018DC04EB440001EBC000007B60BB0120C0
:1046700004EB4401174A02EBC101087304EB440246
:10468000144B03EBC20004EB440203EBC2021169BA
:10469000884719E004EB44000E4901EBC000007BA1
:1046A000012811D1002004EB44010A4A02EBC101A8
:1046B000087304EB4402074B03EBC20004EB440213
:1046C00003EBC20211698847601CC4B20C2CACDB3E
:1046D00070BD0000744D002050208E4908804FF4BA
:1046E0008C704880A02088804000C88000208860AE
:1046F0000873894808618948486100200883A0211F
:104700008448418350218183C821C18301210162F2
:10471000002180F82410804981628049C1625020C4
:104720007C490886A0217B4841868186C821C186B4
:1047300002218163002180F83C10774901647749A8
:104740004164A0207349A1F84800A0217148A0F855
:104750004A10F021A0F84C10C821A0F84E100321F7
:104760000165002180F854106B4981656B49C16572
:1047700000206849A1F86000C8216648A0F86210CE
:104780005021A0F86410F021A0F866100421816681
:10479000002180F86C106049016760494167502032
:1047A0005C49A1F87800C8215A48A0F87A10A021E5
:1047B000A0F87C10F021A0F87E100521C0F8801030
:1047C000002180F884105449C0F888105349C0F87B
:1047D0008C10A0204F49A1F89000C8214D48A0F8A6
:1047E0009210F021A0F89410A0F896100621C0F8BD
:1047F0009810002180F89C104749C0F8A010474944
:10480000C0F8A41000204349A1F8A800F0214148B5
:10481000A0F8AA105021A0F8AC104FF48C71A0F8A9
:10482000AE100721C0F8B010002180F8B4103A494A
:10483000C0F8B8103949C0F8BC1050203549A1F86B
:10484000C000F0213348A0F8C210A021A0F8C41085
:104850004FF48C71A0F8C6100821C0F8C8100021D0
:1048600080F8CC102C49C0F8D0102C49C0F8D410D6
:10487000A0202849A1F8D800F0212648A0F8DA1095
:10488000A0F8DC104FF48C71A0F8DE100921C0F8FC
:10489000E010002180F8E4101F49C0F8E8101F491B
:1048A000C0F8EC1000201B49A1F8F0004FF48C7107
:1048B0001848A0F8F2105021A0F8F4108900A0F8D0
:1048C000F6100A21C0F8F810002180F8FC101249F7
:1048D000C0F800111249C0F80411A0200D49A1F838
:1048E00008014FF48C710B48A0F80A11F021A0F8D0
:1048F0000C114FF4A071A0F80E110B21C0F810118B
:10490000002180F814110449C0F818110549C0F8B5
:104910001C117047744D0020112C0008A52A0008B6
:10492000B12B0008752A000870B505460E46002414
:104930003BE004EB44001F4901EBC0008088A84223
:1049400031DD04EB440031F83000A8422BDA04EBEF
:10495000440001EBC000C088B04224DD04EB4400F9
:1049600001EBC0004088B0421DDA002004EB440196
:10497000104A02EBC101087304EB44020D4B03EB38
:10498000C20004EB440203EBC2021169884704EB46
:104990004402084B03EBC20004EB440203EBC202E7
:1049A0005169884703E0601CC4B20C2CC1DB00BF16
:1049B00070BD0000744D00207047000010B540F23B
:1049C0002551204800F0A3F8D8B11E4800F05AF94C
:1049D000C4B21D48B0F80004C0F30E0040F2FF312D
:1049E00088420EDA1849B1F80014C1F30E00411CD8
:1049F000154AB2F8002461F30E021349A1F800240D
:104A00000C5440F224410F4800F081F8012817D1DE
:104A10000D48B0F8000420F4004000F500400A49B9
:104A2000A1F80004074800F02DF9C4B207A1064818
:104A3000FBF7ACFB08B1012000E00020064908703C
:104A400010BD00000048004070450020434C4F530B
:104A500045440D0A000000009400002021B1828925
:104A600042F40052828104E082894DF6FF731A40BD
:104A70008281704700B585B001210420FEF740FE19
:104A800001218803FEF73CFE4FF40070ADF81000E2
:104A900018208DF8130003208DF8120004A9134884
:104AA000FCF7B2FD4FF48060ADF8100004208DF8E3
:104AB000130004A90D48FCF7A7FD4FF4E130009066
:104AC0000020ADF80400ADF80600ADF80800ADF820
:104AD0000C000C20ADF80A006946054800F066F8A5
:104AE00001210348FFF7BAFF05B000BD00080140EF
:104AF0000038014002460020B1F5007F00D100BF20
:104B000013880B400BB1012000E00020704770B506
:104B10000246002400230025002040F66A16B14218
:104B200000D100BFC1F3421501F01F03012606FAB0
:104B300003F3012D02D19689334006E0022D02D104
:104B4000168A334001E0968A33400C12012606FA99
:104B500004F41688344013B10CB1012000E00020A9
:104B600070BDF0B50346002400260025002040F665
:104B70006A17B94200D100BF1846C1F3421401F0D0
:104B80001F06012707FA06F5012C01D10C3004E0BD
:104B9000022C01D1103000E014301AB107682F4305
:104BA000076002E00768AF430760F0BD2DE9F047FA
:104BB00086B005460E460024A24600BFA146002747
:104BC000B08900B100BF2F462C8A4CF6FF7004401C
:104BD000F08804432C82AC894EF6F3100440B08870
:104BE00031890843718908430443AC81AC8A4FF68C
:104BF000FF400440B0890443AC8201A8FEF790FD59
:104C00001F48874202D1DDF810A001E0DDF80CA0BA
:104C1000A88900F4004040B10AEBCA0000EB0A107A
:104C200031684900B0FBF1F807E00AEBCA0000EB7D
:104C30000A1031688900B0FBF1F86420B8FBF0F08D
:104C400004012009642101FB1089A88900F40040B7
:104C500040B1322000EBC900B0FBF1F000F00700DA
:104C6000044308E0322000EB09106421B0FBF1F0AE
:104C700000F00F0004432C8106B0BDE8F08700006F
:104C80000038014001468888C0F308007047C1F32E
:104C90000802828070470FB470B586B006460CA833
:104CA000019073E00B9800785C281CD10B98401C95
:104CB0000B9000786E2809D072280FD10D21304654
:104CC000FFF7E5FF0B98401C0B900BE00A213046E4
:104CD000FFF7DDFF0B98401C0B9003E00B98401C86
:104CE0000B9000BF4BE00B980078252840D10B9823
:104CF000401C0B900078642818D0732833D1019899
:104D000010C801900BE021783046FFF7C0FF00BFCC
:104D100080213046FFF7EEFE0028F9D0641C207891
:104D20000028F0D10B98401C0B9020E0019820C87F
:104D300001900A2202A9284601F022F902AC0BE0F8
:104D400021783046FFF7A3FF00BF80213046FFF7F0
:104D5000D1FE0028F9D0641C20780028F0D10B98EF
:104D6000401C0B9003E00B98401C0B9000BF06E02A
:104D70000B9810F8011B0B903046FFF788FF00BF1F
:104D800080213046FFF7B6FE0028F9D00B98007856
:104D9000002887D106B070BC5DF814FB00BFFEE7A9
:104DA0007FB505460C46E0B28DF80000200A8DF86C
:104DB0000100200C8DF80200200E8DF80300E04366
:104DC000C0B28DF80400E043000A8DF80500E0430E
:104DD000000C8DF80600E043000E8DF80700E0B2ED
:104DE0008DF80800200A8DF80900200C8DF80A00C3
:104DF000200E8DF80B008DF80C50E843C0B28DF8F2
:104E00000D008DF80E50E843C0B28DF80F006946D2
:104E10002846FEF78AFB0646304604B070BD000007
:104E200070B504460D467E2000EA4406402107483E
:104E3000FCF77EFC3046FFF7E1F82846FFF7DEF886
:104E400040210248FCF776FC70BD000000180140CC
:104E50002DE9F04105460C4616460127B4F900102D
:104E6000B4F91020891AB4F90A30B4F912209A1A48
:104E70005143B4F90820B4F91030D31AB4F902C080
:104E8000B4F91220ACEB020203FB1210FBF7E7FBB4
:104E9000B0610021B069FBF755FC01D10027C3E0E8
:104EA000B5F90010B5F91020891AB4F90A30B4F92F
:104EB00012209A1A5143B5F90820B5F91030D31AC7
:104EC000B4F902C0B4F91220ACEB020203FB1210D9
:104ED000FBF7C5FB3060B4F90010B4F91020891A53
:104EE000B5F90820B5F91030D21A5143B5F90020B0
:104EF000D21AB4F90830B4F910C0A3EB0C0302FBCA
:104F00001310FBF7ACFB7060B4F91010B5F9082072
:104F10005143B4F90820B5F9103002FB1311B4F96C
:104F200002205143B4F900205A43B4F91030B5F9C6
:104F300000C003FB1C23B4F90A2003FB0212B4F9DE
:104F4000081001FB0CF1B4F90030B5F908C003FBFF
:104F50001C13B4F9121003FB0120FBF780FBB060B7
:104F6000B5F90220B5F91210511AB4F90A30B4F9A2
:104F700012209A1A5143B5F90A30B5F912209B1A3A
:104F8000B4F902C0B4F91220ACEB020203FB121018
:104F9000FBF765FBF060B4F90010B4F91020891A32
:104FA000B5F90A30B5F912209A1A5143B5F9023011
:104FB000B5F912209A1AB4F90830B4F910C0A3EB6D
:104FC0000C0302FB1310FBF74AFB3061B4F910101D
:104FD000B5F90A205143B4F90830B5F9122003FBA2
:104FE0001211B4F902205143B4F90020B5F912307E
:104FF0005A43B4F91030B5F902C003FB1C23B4F9CD
:105000000A2003FB0213B4F9081001FB0CF1B4F9F8
:1050100000C0B5F90A200CFB1212B4F9121002FB01
:105020000130FBF71CFB70613846BDE8F08101B52B
:10503000002007E00C2100BF0A00A1F10103D9B252
:10504000FAD1401C00998842F4D308BD2DE9FC5FD9
:1050500005460C460126684600F0C2F8002865D0D7
:10506000BDF90200FBF7FBFA83463248007800EBFB
:10507000400004EBC00041685846FBF7F8F8814651
:10508000BDF90000FBF7EBFA83462A48007800EBF5
:10509000400054F830105846FBF7E9F8824649467C
:1050A000FBF78DF880462348007800EB400004EBC6
:1050B000C00081684046FBF782F80746FBF7E5FA37
:1050C00000B22880BDF90200FBF7C9FA83461948EF
:1050D000007800EB400004EBC00001695846FBF784
:1050E000C6F88146BDF90000FBF7B9FA83461148BE
:1050F000007800EB400004EBC000C1685846FBF7A5
:10510000B6F882464946FBF75AF8804609480078C7
:1051100000EB400004EBC00041694046FBF74FF84C
:105120000746FBF7B2FA00B2688000E0002630467E
:10513000BDE8FC9F3000002008B501214FF4C0708D
:10514000FEF7DEFA8020ADF8000001208DF80200A5
:1051500010208DF8030069461B48FCF755FA4FF400
:105160000060ADF8000069461848FCF74DFA402091
:10517000ADF8000001208DF8020048208DF80300F2
:1051800069461248FCF740FA4FF48060ADF8000021
:1051900001208DF8020010208DF8030069460B48AD
:1051A000FCF732FA4FF480610848FCF7C1FA4FF47B
:1051B0000070ADF8000048208DF8030069460348F0
:1051C000FCF722FA08BD000000200140001C01404D
:1051D00010B50446204600F021FC00F0C3F810BDD5
:1051E0002DE9F0478CB00646002528216846FAF7DD
:1051F000C2FF00BF0AA90BA800F0A0F8BDF92C005F
:105200002DF81500BDF9281005A820F81510681C08
:10521000C5B24FF400714748FCF781FA08B90A2D6E
:10522000E8DB4FF400714348FCF779FA10B1002035
:10523000414908700A2D7BD1BDF90070B846BDF90F
:105240001490CA4601240EE03DF91400B84202DA77
:105250003DF9147005E03DF91400404501DD3DF9CC
:105260001480601CC4B20A2CEEDB012412E005A8F5
:1052700030F91400484503DA05A830F9149007E026
:1052800005A830F91400504502DD05A830F914A036
:10529000601CC4B20A2CEADBBDF90000BDF90210A3
:1052A0000844BDF904100844BDF906100844BDF9CE
:1052B00008100844BDF90A100844BDF90C10084450
:1052C000BDF90E100844BDF910100844BDF91210C4
:1052D0000844C01BA0EB0800C01000B23080BDF92C
:1052E0001410BDF916000144BDF918000144BDF9C0
:1052F0001A000144BDF91C000144BDF91E0001441F
:10530000BDF920000144BDF922000144BDF924008B
:105310000144BDF926000844A0EB0900A0EB0A00F7
:10532000C01000B2708001200CB0BDE8F087FFE72C
:105330000020F9E7001C01405C0100202DE9F0414C
:1053400004460D469020FFF743FF06B20120FFF709
:105350006EFED020FFF73CFF07B226802F80BDE80D
:10536000F081000070B500254FF400611048FCF793
:10537000DFF980210F48FCF7DDF9002414E08021DB
:105380000C48FCF7D5F940210948FCF7C8F9064656
:10539000C4F10B0006FA00F0284385B280210548CD
:1053A000FCF7C8F9601CC4B20C2CE8DB284670BDC1
:1053B000001C01400020014010B50024284800785E
:1053C00020B1012812D0022842D131E04FF40071FF
:1053D0002448FCF7A4F920B90120214908700024D1
:1053E00003E000201E490870002436E04FF40071ED
:1053F0001C48FCF794F9A0B91B480068401C1A49E6
:10540000086008460068022806D9002008600220CB
:105410001349087001240AE0012011490870002492
:1054200005E00020104908600D490870002414E0D0
:105430004FF400710B48FCF772F920B902200849BB
:105440000870012403E0002005490870002404E0EE
:10545000002003490870002400BF00BF204610BD93
:105460005D010020001C01406001002010B50446D1
:10547000B4F90400401C20B9B4F90400401C00B980
:1054800010BD628891B2228890B2FFF7C9F800BFC0
:10549000F6E7000010B5FFF78FFF012816D114487A
:1054A000006880F001001249086012491248FFF7B5
:1054B000CDFD00BF00BF1048FFF7D8FF0E480088A1
:1054C0000D49888008464088C8800FE00848006879
:1054D00080F0010006490860074800F00FF84FF01F
:1054E000FF300549088048808880C88010BD0000D2
:1054F0000C0C01409C0000206401002010B5044603
:10550000B4F90400401C20B9B4F90400401C00B9EF
:1055100010BDE28891B2A28890B2FFF705FAFDF7BC
:10552000E7FC00BFF4E700002DE9F04FB9B00446F6
:105530004FF00009CA4600201E901D900026FE482C
:10554000FDF700FA00211F20FDF7F2F92046FCF7D5
:1055500015FFFA4800888010ADF85400F84800881C
:105560008010ADF85600BDF85400ADF85C00F4486A
:10557000008800EB4000801001B215A84181EF487F
:10558000008800EB4000801000B2ADF8640015A860
:1055900041894182BDF86400ADF86C00BDF8561039
:1055A00015A84183002558E0E5480388E3480288B0
:1055B00000210846FCF7D2FBE2A6FDF7ADF9808892
:1055C000DE49098891FBF0F83046FAF7F1FDA8EBC7
:1055D0000000470820233A46E0A11FA8009600F0EB
:1055E00063FAD749098848101FA9FCF723FCFDF787
:1055F00093F98088D149098891FBF0F0471E681C17
:10560000009007EBD77042102023D6A11FA800F00E
:105610004BFAFDF781F9C088C9490988C0EB6100E0
:1056200087B21FA93846FCF705FCD048FFF7FFFCFE
:1056300015AA02EBC502528891B215AA32F835209C
:1056400090B2FCF7E1FC00BF0DA901EBC500FFF72C
:10565000C7FD0028F8D0681CC5B2042DA4DB06AA3B
:105660000DA915A8FFF7F4FB00210C98FBF76AF8C9
:1056700000D143E1BDF94E00FAF7F1FF039007991D
:10568000FAF7F5FD8346BDF94C00FAF7E8FF039001
:105690000699FAF7ECFD59460490FAF790FD80461A
:1056A0000899FAF78CFD05900C99FAF712FE074657
:1056B000FBF704F81FFA80F9BDF94E00FAF7CFFFA7
:1056C00003900A99FAF7D3FD0590BDF94C00FAF75B
:1056D000C6FF03900999FAF7CAFD04900599FAF7F5
:1056E0006EFD83460B99FAF76AFD80460C99FAF72E
:1056F000F0FD0746FAF7E2FF1FFA80FABDF96C00E9
:10570000484504DABDF96C00A9EB000003E0BDF9DF
:105710006C00A0EB090080B21E90BDF96E005045F0
:1057200004DABDF96E00AAEB000003E0BDF96E00DB
:10573000A0EB0A0080B21D901E980F2802DC1D9875
:105740000F2800DDDAE00C98FAF7CCFFCDE9020172
:105750000698FAF7C7FF07460022854BFAF79EFE28
:10576000CDE90001DDE90223FAF70AFFCDE90401E2
:10577000FAF7CBFF04EB44017E4A42F831000C9863
:10578000FAF7B0FFCDE902010798FAF7ABFF074639
:105790000022774BFAF782FECDE90001DDE9022312
:1057A000FAF7EEFECDE90401FAF7AFFF04EB44018E
:1057B000704A02EBC10148600C98FAF793FFCDE9FB
:1057C00002010898FAF78EFF07460022684BFAF7A5
:1057D00065FECDE90001DDE90223FAF7D1FECDE94E
:1057E0000401FAF792FF04EB4401624A02EBC101A3
:1057F00088600C98FAF776FFCDE904010998FAF76A
:1058000071FF00225A4BCDE90001FAF747FECDE9BE
:105810000201DDE90423FAF7B3FE0746FAF775FF44
:1058200004EB4401534A02EBC101C8600C98FAF73B
:1058300059FFCDE904010A98FAF754FF00224C4BB6
:10584000CDE90001FAF72AFECDE90201DDE90423E2
:10585000FAF796FE0746FAF758FF04EB4401454A6B
:1058600002EBC10108610C98FAF73CFFCDE9020197
:105870000B98FAF737FF00223D4BCDE90001FAF70C
:105880000DFE0746DDE90223FAF77AFECDE90401B1
:10589000FAF73BFF04EB4401364A02EBC1014861D1
:1058A000274803882548028800210846FCF756FA55
:1058B0004FF4FC60FDF74CF82FA6FDF72DF880881B
:1058C0001E49098891FBF0F83046FAF771FCA8EB05
:1058D0000000470820233A4620A11FA8009600F0A8
:1058E000E3F81749098848101FA9FCF7A3FA2748CD
:1058F000FFF79DFB012039B0BDE8F08F1048038809
:105900000E48028800210846FCF728FA4FF4784038
:10591000FDF71EF81EA6FCF7FFFF808807490988DF
:1059200091FBF0F83046FAF743FCA8EB000047087B
:1059300020233A4609A133E03C0000202C0000203F
:105940002E000020546F7563682043616C69627299
:10595000617465202E2E2E2E2E2E0000252A632502
:1059600073000000252A632564000000E093040012
:105970000000F03F9C00002043616C69627261741A
:1059800065205375636365640000000040420F00AA
:1059900043616C696272617465206661696C0000C4
:1059A0001FA8009600F080F81649098848101FA922
:1059B000FCF740FA14A6FCF7AFFF80881549098868
:1059C00091FBF0F83046FAF7F3FBA8EB000047082C
:1059D00020233A46AFF27C011FA8009600F064F83D
:1059E000FCF79AFFC0880749098800EB610087B27D
:1059F0001FA93846FCF71EFA0748FFF718FB0020DE
:105A000079E700002E0000207472792061676169D7
:105A10006E0000002C00002040420F0070B50546CB
:105A20004FF400611648FBF783FE80211548FBF711
:105A30007FFE002421E0C4F1070045FA00F000F0E9
:105A4000010028B14FF400610D48FBF773FE04E03C
:105A50004FF400610A48FBF76BFE0520FFF7E7FAF9
:105A600080210848FBF766FE0520FFF7E0FA802159
:105A70000448FBF75DFE601CC4B2082CDBDB70BD84
:105A8000001C0140002001400FB4054B10B503A9D4
:105A9000044A029800F02CF810BC5DF814FB0000DA
:105AA0005D5F00086C0100200FB4084B10B504A91D
:105AB00002AA039800F01CF8044602A9002000F096
:105AC00048FA204610BC5DF814FB0000535F000844
:105AD00002E008C8121F08C1002AFAD170477047B7
