:020000040800F2
:100000007048002045010008811F000859100008B1
:100010007D1F0008A507000831340008000000001B
:10002000000000000000000000000000C92D0008D2
:10003000510A00080000000087250008CD2E0008A6
:100040005F0100085F0100085F0100085F01000810
:100050005F0100085F0100088D0A00085F010008C9
:100060005F0100085F0100085F0100085F010008F0
:100070005F0100085F0100085F0100085F010008E0
:100080005F0100085F0100085F0100085F010008D0
:100090005F0100085F0100085F0100085F010008C0
:1000A0005F0100085F0100085F0100085F010008B0
:1000B000B12F0008813100085F0100085F010008CE
:1000C0005F0100085F0100085F0100085F01000890
:1000D0005F010008993200085F0100085F01000815
:1000E000E10A00085F0100085F0100085F010008E5
:1000F0005F0100085F0100085F0100085F01000860
:100100005F0100085F0100085F0100085F0100084F
:100110005F0100085F0100085F0100085F0100083F
:100120005F0100085F0100085F0100085F0100082F
:10013000DFF80CD000F014FB004800470D3E00082B
:10014000704800200648804706480047FEE7FEE763
:10015000FEE7FEE7FEE7FEE7FEE7FEE7FEE7FEE777
:10016000512F0008310100082DE9FE4F804681EA39
:100170000300C00F0C46009021F0004123F0004521
:10018000B8EB0200A94105D24046214690461C46E4
:100190000B46024623F00040104347D0270DC7F31B
:1001A0000A00C3F30A510290401A019040286BDA0A
:1001B000C3F3130040F4801B0098924620B1002343
:1001C000D2EB030A63EB0B0B01985946C0F14002D6
:1001D000504600F070F906460D4650465946019AC1
:1001E00000F078F910EB08006141002487EA115211
:1001F00084EAE7731A4340D0009A62B3019A012A55
:100200004FEA075215DC001B61EB02014FF0004280
:1002100002EA0752CDE90042001C41F58011324646
:100220002B4600F0AFF903B0BDE8F08F4046214601
:10023000F9E7001B61EB0201001C41F58013001877
:100240005B412018A2F5001747EB030140EAD57087
:10025000B6196D4111E06D084FEA360645EAC075E2
:100260004FEA0752001B61EB0201001C41F58011AF
:1002700049084FEA30000019514132462B4603B07D
:10028000BDE8F04F00F06FB9009801224000002354
:10029000D0EB020263EBE073009821464FEAE07472
:1002A000B8EB000061EB0401E9E783F000435BE792
:1002B00081F0004158E72DE9FE4F81EA030404F084
:1002C000004421F0004100944FF0000B23F0004364
:1002D00050EA01045ED052EA03045BD0C3F30A542F
:1002E000C1F30A552C44A4F2F3340194A0FB025448
:1002F000C1F3130141F48011C3F3130343F48013DA
:1003000001FB024400FB034E840A970A44EA81542D
:1003100047EA8357A4FB076802958D0A05FB07850A
:100320004FEA932C04FB0C542705029D4FEA065814
:1003300047EA1637B5EB08056EEB070C870E920EF1
:1003400047EA811742EA8312A7FB0201B6EB0B01D1
:1003500064EB00042B0D43EA0C335E1844EB1C5095
:10036000DA465146E7FB0201C5F313044FEA0B33AB
:1003700043EA14534FEA0432019C43EA0603A4F112
:100380000C040294009CCDE900B400F0FBF803B02B
:10039000BDE8F08F00200146F9E70EB540F2334189
:1003A00002910021CDE900110A460B4600F0EAF85F
:1003B00003B000BD00F0004230F000400AD0C10D93
:1003C00001F56071C0F3160042EA0151C20840070E
:1003D0001143704700200146704701F0004330B4DC
:1003E00021F0004150EA010206D00A0DA2F5607228
:1003F000C1F31301002A02DC30BC00207047440F17
:1004000044EAC104C100E01830BC00EBC25000F067
:1004100073B80000002801DBC0F10040002901DBB7
:10042000C1F100418842704730B50B4601460020BB
:100430002022012409E021FA02F59D4205D303FAA6
:1004400002F5491B04FA02F52844151EA2F1010227
:10045000F1DC30BD2DE9F05F0546002092469B4659
:1004600088460646814640241BE0284641464746CA
:10047000224600F087F953465A46C01A914110D3DC
:1004800011461846224600F016F82D1A67EB0108AF
:100490004F4622460120002100F00DF817EB00091D
:1004A0004E41201EA4F10104DFDC484631462A46B5
:1004B0004346BDE8F09F202A04DB203A00FA02F10F
:1004C000002070479140C2F1200320FA03F3194342
:1004D00090407047202A06DBCB17203A41FA02F001
:1004E00043EAE07306E041FA02F3D040C2F1200291
:1004F00091400843194670470029A8BF7047401C27
:10050000490008BF20F00100704710B4B0FA80FC29
:1005100000FA0CF050EA010404BF10BC704749B166
:10052000CCF1200421FA04F411FA0CF118BF0121D6
:1005300021430843A3EB0C01CB1D4FEA00614FEAB6
:10054000102042BF002010BC704700EBC350104485
:100550000029A4BF10BC7047401C490008BF20F010
:10056000010010BC704710B5141E73F1000408DAC6
:10057000401C41F1000192185B411A4301D120F067
:10058000010010BD2DE9F04D92469B4611B1B1FA24
:1005900081F202E0B0FA80F220329046FFF78BFF42
:1005A00004460F4640EA0A0041EA0B0153465A4608
:1005B000084313D0114653EA010019D0C8F1400294
:1005C000504600F0DFF805460E4650465946424672
:1005D000FFF771FF084305D0012004E020463946AB
:1005E000BDE8F08D0020054346EAE0762C43374312
:1005F0000A986305E40AA0EB08000022FD0A44EA19
:1006000047540A3002D500200146E9E701051019D8
:100610006941DDE9084500196941BDE8F04DA2E7EF
:100620002DE9F04D81EA030404F0004B21F0004570
:1006300014464FF0000A23F0004150EA050220D092
:1006400054EA01021DD0C5F30A570246C5F313034D
:10065000C1F31300C1F30A5640F4801543F480132C
:10066000A7EB0608101BD64608F2FD3873EB050011
:1006700002D308F1010801E092185B41B8F1000FC4
:1006800003DA00200146BDE8F08D00204FF4801110
:10069000064684460EE0171B73EB050705D3121BB5
:1006A00063EB050306434CEA010C49084FEA3000AE
:1006B00092185B4150EA0107EDD152EA030012D0D3
:1006C00082EA040083EA0501084305D0101BAB4110
:1006D00006D20122002306E000224FF0004302E090
:1006E0006FF0010253101AEB06004CEB085110EBAF
:1006F0000A0041EB0B01BDE8F04DFFF734BFC1F339
:100700000A52C1F3130140F2FF3341F480119A42BF
:1007100002DA00200146704740F233439A42A2F2C7
:10072000334202DC524200F02DB8FFF7C4BE000095
:1007300030B5041E71F1000404DB4FF00044404268
:1007400064EB0101141E73F1000405DB1C464FF03D
:100750000043524263EB0403994208BF904230BD0C
:10076000064C074D06E0E06840F0010394E80700FE
:1007700098471034AC42F6D3FFF7DEFC207B00082C
:10078000407B0008202A04DB203A21FA02F00021F5
:10079000704721FA02F3D040C2F120029140084391
:1007A0001946704700BFFEE70748006840F08070B8
:1007B000054908600020054948600846006840F087
:1007C0000100086070470000FCED00E0001000E050
:1007D0000148406870470000001000E031B5002477
:1007E000FFF7E2FF104800681049B0FBF1F00099F4
:1007F00000FB01F500BFFFF7EBFF034611E0FFF739
:10080000E7FF02469A420CD09A4202D9D01A044419
:1008100003E0C3F1FF30104404441346AC4200D35C
:1008200000E0ECE700BF38BD0000002040420F00B0
:100830002DE9F0410746884615460421052000F0C1
:100840002DF80021012002F035FE80210A2002F05F
:10085000BCFA002405E0395D092002F02BFE601C83
:10086000C4B24445F7DB0321012002F023FEFF243C
:1008700000BF052001F0CAFF0646601EC4B21CB1CD
:1008800006F004000028F4D0222001F0BFFF2870F9
:10089000212001F0BBFF6870BDE8F08170B505460E
:1008A0000C46284601F0B2FF064626EA0401284617
:1008B00002F000FE70BD000008B50121802001F0AB
:1008C000EBFE4FF40040ADF8000010208DF803005F
:1008D00003208DF802006946014800F0FBFA08BDCC
:1008E000001C014010B5FFF7E7FF4FF4004102483C
:1008F00000F086FB10BD0000001C014008B54FF45D
:100900000040ADF8000048208DF803006946024819
:1009100000F0E0FA08BD0000001C014008B54FF4EB
:100920000040ADF8000010208DF8030003208DF882
:1009300002006946014800F0CDFA08BD001C0140E4
:1009400070B50025002427E000BF4FF40041144893
:1009500000F04BFB0028F8D02820FFF73FFF4FF4B2
:1009600000410F4800F041FB01280ED100BF4FF4B9
:1009700000410B4800F039FB0128F8D0C4F1070111
:1009800001208840C0B2054304E0C4F10701012002
:1009900088408543601CC4B2082CD5DB284670BD56
:1009A000001C014010B50446FFF7B8FF4FF40041AA
:1009B000264800F023FB44F25060FFF70FFF4FF48E
:1009C0000041224800F01CFB1E20FFF707FFFFF745
:1009D00095FF4FF400411D4800F007FB88BB00BFA6
:1009E0004FF40041194800F000FB0028F8D000BF88
:1009F0004FF40041154800F0F8FA0128F8D0FFF74D
:100A00009FFF2070FFF79CFF6070FFF799FFA070B9
:100A1000FFF796FFE070FFF793FF2071FFF77EFF6F
:100A20004FF40041094800F0EBFA2078617808445F
:100A3000A1780844E17808442179884202D1012054
:100A400010BD01E00020FBE70020F9E7001C014099
:100A50007047000001B50C49009808604FF0E02095
:100A6000006940F001004FF0E021086100BF064836
:100A700000680028FBD14FF0E020006920F0010061
:100A80004FF0E021086108BD680000201CB501207E
:100A900000F05AF8F8B100200F4908704FF4FC60DC
:100AA00001F0DCF93123F0220021084600F064FC5B
:100AB0003223F0223021002000F05EFC002007A14C
:100AC00030231A46CDE900100146602000F036FDC3
:100AD000012000F033F81CBD2C000020494E00001E
:100AE0001CB54FF4005000F02FF808B30120114955
:100AF00008701F2001F0B2F931234FF4A0720021D9
:100B0000084600F039FC32234FF4A0723021002057
:100B100000F032FC002008A130231A46CDE9001075
:100B20000146542000F00AFD4FF4005000F006F892
:100B30001CBD00002C0000204F55540001490860E6
:100B40007047000014040140014600200022074BBA
:100B50001B6803EA0102054B14331B680B4013B1F9
:100B60000AB1012000E000207047000000040140AD
:100B7000002123498279002A3AD00A461268036884
:100B80009A430B461A600A1D126803689A430B1DAC
:100B90001A60027911440A6803681A430A60184A05
:100BA0000832126803689A43154B08331A601A1DFD
:100BB000126803689A43124B0C331A604279102A68
:100BC0000ED11A1F126803681A430D4B08331A60BE
:100BD0001A1D126803681A43094B0C331A600DE0A2
:100BE0000749427911440A6803681A430A6005E01C
:100BF000027911440A6803689A430A60704700004A
:100C0000000401400EB50121052001F045FD01F071
:100C1000B8F90120ADF8080004208DF80B0002A9F6
:100C2000194800F057F90021084600F033F9012077
:100C3000009000208DF8040008208DF805000120A8
:100C40008DF806006846FFF793FF4FF40050ADF8AB
:100C5000080004208DF80B0002A90C4800F03AF9B6
:100C60000D21022000F016F94FF4005000900020F2
:100C70008DF8040008208DF8050001208DF806008D
:100C80006846FFF775FF0EBD0008014000100140E7
:100C900051B18200A2F1C042126842F00103820009
:100CA000A2F1C042136009E08200A2F1C0421268C2
:100CB000034B1A408300A3F1C0431A607047000041
:100CC000FEFF0F00D0E901121143C268114302690F
:100CD00011434269114382691143C2691143026A97
:100CE0001143426A1143826A1143C26A1143026B83
:100CF000114302689200A2F1C04211608168082984
:100D00000BD101688900A1F1C041096841F040029E
:100D100001688900A1F1C0410A60416B0968426B1A
:100D2000526841EA0211426B926841EA0221426B29
:100D3000928941EA0241426B128A41EA0251426BB6
:100D4000127D41EA0261426B926911430268521CB2
:100D50009200A2F1C0421160C16AB1F5804F1BD16F
:100D6000816B0968826B526841EA0211826B92685A
:100D700041EA0221826B128A41EA0251826B127DA2
:100D800041EA0261826B9269114302689200A2F10A
:100D9000C042C2F8041107E06FF070420168890098
:100DA000A1F1C041C1F80421704710B500F028F846
:100DB00000F002F810BD00000EB50121022001F084
:100DC0005BFC42F20F70ADF8040041F61F40ADF835
:100DD00000000020ADF80600ADF802008DF8080014
:100DE0006946064802F0FAF90121044802F0C9F9FF
:100DF00001221146014802F0E7F90EBD000400404F
:100E000008B51D208DF8000002208DF8010000209B
:100E10008DF8020001208DF80300684601F0C8F843
:100E200008BD10B500F026F800F001F810BD0EB5B1
:100E30000121084601F020FC42F20F70ADF80400D9
:100E400041F61F40ADF800000020ADF80600ADF8F7
:100E500002008DF8080069464FF0804002F0BEF9AC
:100E60000121880702F08DF901221146900702F056
:100E7000ABF90EBD08B51C208DF8000002208DF8DE
:100E8000010001208DF802008DF80300684601F092
:100E90008FF808BD30B500228B071C0F0F2303FA13
:100EA00004F20B4B8C1053F824309343084C8D10F4
:100EB00044F8253023468C1053F824308C07240F37
:100EC00000FA04F42343024C8D1044F8253030BD61
:100ED000080001402DE9F0410246002500260020CF
:100EE00000230024002791F803C00CF00F0591F8AF
:100EF00003C00CF0100CBCF1000F03D091F802C03D
:100F00004CEA050591F800C0BCF1000F31D014681F
:100F100000202BE04FF0010C0CFA00F3B1F800C0F8
:100F20000CEA03069E4220D183004FF00F0C0CFA0E
:100F300003F7BC4305FA03FC4CEA040491F803C030
:100F4000BCF1280F06D14FF0010C0CFA00FCC2F8DE
:100F500014C00AE091F803C0BCF1480F05D14FF06E
:100F6000010C0CFA00FCC2F810C0401C0828D1D3B8
:100F70001460B1F800C0BCF1FF0F34DD54680020EC
:100F80002EE000F1080C4FF0010808FA0CF3B1F85C
:100F900000C00CEA03069E4221D183004FF00F0CE3
:100FA0000CFA03F7BC4305FA03FC4CEA040491F87D
:100FB00003C0BCF1280F05D100F1080C08FA0CF8A9
:100FC000C2F8148091F803C0BCF1480F07D100F1BA
:100FD000080C4FF0010808FA0CF8C2F81080401C09
:100FE0000828CED35460BDE8F08102460020936803
:100FF0000B400BB1012000E00020704741617047B9
:10100000016170472DE9F04180460C461048007898
:1010100020B901F0A3FD01200D4908702512E6B2A8
:10102000A5F1A101C1EB011202EB411106EB410157
:10103000A1390802C11700EB5171CF1005483918CA
:101040002022404601F062FD0020BDE8F081000052
:10105000600000200030180000BFFEE794B00025BB
:101060003AE102A9262001F09DF90646262804D07F
:1010700002A9262001F096F90646262EF0D102A8F4
:1010800001F042F82628EBD13223F0223021002053
:1010900000F072F902209149086001F051FC81468C
:1010A0004846FFF787F907463A460B468CA10CA83D
:1010B00002F028FA00F0B0FEC0880005070C0CA969
:1010C000384600F007FA8A494846FFF7A3F901D2EB
:1010D00045F0080587480078012877D102A801F07B
:1010E000CDF902AB844A1221602001F046F8834812
:1010F0000168122002F09EF90BA9122001F046FBB4
:10110000262861D19DF80B009DF80A10CDE900104A
:101110009DF809309DF8082079A103A802F0F2F9A2
:1011200000F07AFEC08800EB400087B203A9384681
:1011300000F0D0F94FF461610B98B0FBF1F201FBC4
:1011400012003C21B0FBF1F201FB12074FF4616188
:101150000B98B0FBF1F201FB12003C21B0FBF1F85F
:101160004FF461610B98B0FBF1FA434652466DA112
:1011700003A8009702F0C6F900F04EFEC08800EB0D
:10118000800087B203A9384600F0A4F90BA911200A
:1011900001F0FCFA262815D100F03EFEC08880043C
:1011A000070C65A1384600F095F900F035FEC088BF
:1011B0008004070C10200A230090394620200B9A47
:1011C00000F046F901F0AAF87AE0FFE74948007814
:1011D000002875D102A801F051F902AB464A12214C
:1011E000602000F0CAFF0BA9122001F0CFFA2628D8
:1011F00066D19DF80B009DF80A10CDE900109DF80E
:1012000009309DF808203EA103A802F07BF900F008
:1012100003FEC08800EB400087B203A9384600F007
:1012200059F9364800680B99441A4FF46160B4FBD1
:10123000F0F100FB11403C21B0FBF1F201FB120781
:101240004FF46160B4FBF0F100FB11403C21B0FBB6
:10125000F1F84FF46160B4FBF0FA4346524638A10E
:1012600003A8009702F04EF900F0D6FDC08800EB0D
:10127000800087B203A9384600F02CF90BA9112091
:1012800001F084FA262815D100F0C6FDC08880043C
:10129000070C29A1384600F01DF900F0BDFDC088FB
:1012A0008004070C10200A230090394620200B9A56
:1012B00000F0CEF8032C01D945F0010501F02EF81D
:1012C00002200649091D08601DB1284602F002FEF1
:1012D00001E002F065FE0025C3E60000101C01409D
:1012E00074656D7075747572653A2566000000004E
:1012F0000000F0412C0000203200002028000020D7
:1013000054686520436172642049442069733A201F
:101310002530325825303258253032582530325851
:101320000000000054696D653A2564682025646DED
:101330002025647300000000736E6F3A0000000007
:10134000476F204F75742054696D653A2564682095
:1013500025646D202564730010B5044624B1402136
:101360000448FFF74BFE03E040210248FFF748FE28
:1013700010BD0000002001402DE9F04106460F4657
:1013800014461D462B4622463946304600F00CFBDB
:1013900004FB05F00249098800F0B7F9BDE8F081C7
:1013A0004600002001B502E00098401E0090009821
:1013B0000028F9D108BD00002DE9F05F804689467C
:1013C0001646A6F120001FFA80FA1E49096889888E
:1013D0001C4A1268D28801FB02F0C11700EB517160
:1013E000C1F3C7071748006800680AFB070B1548D8
:1013F0000068C3881348006882884946404600F068
:10140000D3FA2C2000F02EFC002416E0002510E07A
:101410001BF8040080212941084020B10A480088B7
:1014200000F024FC03E00948008800F01FFC681C61
:10143000C5B2082DECDB601CC4B2BC42E6DBBDE8E3
:10144000F09F0000400000204400002046000020E3
:101450002DE9FF5F074691461D460E9E4FF0000A9C
:10146000002433E0281B401EC1B20A2000F0DAFC41
:10147000B9FBF0F00A21B0FBF1F201FB1208BAF15E
:10148000000F13D1681EA04210DDB8F1000F0BD180
:10149000B34606EBDB71491001FB047188B22022D0
:1014A0000199FFF789FF0FE04FF0010AB34606EB01
:1014B000DB71491001FB047188B208F13001CAB236
:1014C0000199FFF779FF00BF601CC4B2AC42C9DBD1
:1014D000BDE8FF9F70B504460D46002624E0304667
:1014E000134909688988084412490988884205DD3A
:1014F00000260F480068C088204484B220460C496A
:101500000968C98808440C490988884201DD002619
:1015100000242A7821463046FFF74EFF6D1C044810
:1015200000688088304486B228780028D7D170BD02
:1015300040000020380000203A0000202DE9F04F44
:101540008FB00646884614469946DDE9185B274663
:1015500069E03046384437490988884204DD00266E
:1015600008EB09001FFA80F84046484432490988D0
:10157000884201DD0026B0462878802825DD2746F0
:10158000B5F800A04FEA0A2000EB2A201FFA80FAE3
:10159000514605A8FFF736FD012105AA0E984B46D6
:1015A000CDE9002002913A461021084600F062FB86
:1015B00022484B463A464146CDE9000B304600F002
:1015C00041F8F01986B2AD1C2DE0204604EBD07135
:1015D000C1F34F0728782038C0B20D900023184877
:1015E000C288DDE90D015043154A92885043C21765
:1015F000049000EB5270124A126802EBE0008DE892
:101600000B004B463A461821102000F033FB0B48E4
:101610004B463A464146CDE9000B304600F012F801
:10162000F01986B26D1C2878002892D10FB0BDE861
:10163000F08F0000380000203A00002070000020E9
:10164000500000202DE9F05F81468A4614461D4671
:10165000DDE90A6B0027B8462B462246514648462C
:1016600000F0A2F92C2000F0FDFA00BF14E04FF0CA
:1016700000080EE016F8011B594504D108480088FF
:1016800000F0F4FA03E00748008800F0EFFA08F1F0
:101690000108A045EED37F1CAF42E8D3BDE8F09F20
:1016A000460000204400002000B597B00121080248
:1016B00000F0D2FF012001900420039080060790E3
:1016C00000200290049005900690062008900020CB
:1016D000099008200A9010200B9000200C900E908A
:1016E0000F9010904FF480501190002012901390A2
:1016F000149001A81590169008A8FFF7E3FA0121AD
:101700000620FFF7C5FA17B000BD70B504460D46B8
:1017100000262C2000F0A6FA00BF03E0284600F0C7
:10172000A5FA761CA642F9D370BD000008B50121C8
:101730004FF4B07000F0B0FF03208DF802001820C5
:101740008DF803004FF48040ADF8000069465B4817
:10175000FFF7C0FB4FF40040ADF800006946574862
:10176000FFF7B8FB0120ADF8000069465348FFF7CA
:10177000B1FB0220ADF8000069465048FFF7AAFB14
:101780008020ADF8000069464D48FFF7A3FB4FF4F9
:101790008070ADF8000069464948FFF79BFB4FF4A5
:1017A0000070ADF8000069464548FFF793FB4FF421
:1017B0008060ADF8000069464148FFF78BFB4FF4AD
:1017C0000060ADF8000069463D48FFF783FB4FF429
:1017D0008050ADF8000069463948FFF77BFB4FF4B5
:1017E0000050ADF8000069463548FFF773FB4FF431
:1017F0008040ADF8000069463148FFF76BFB4FF4BD
:101800000040ADF8000069462D48FFF763FB4FF438
:101810008070ADF8000069462848FFF75BFB4FF485
:101820000070ADF8000069462448FFF753FB4FF401
:101830008060ADF8000069462048FFF74BFB0320AD
:101840008DF8020018208DF803001020ADF800007C
:1018500069461A48FFF73EFB2020ADF800006946B4
:101860001648FFF737FB4FF48050ADF8000069468B
:101870001448FFF72FFB0420ADF80000694610481C
:10188000FFF728FB10208DF8030003208DF80200DD
:101890004FF40060ADF8000069460A48FFF71AFBF4
:1018A00010208DF8030003208DF802004020ADF8D1
:1018B000000069460348FFF70DFB08BD0014014016
:1018C000001801400020014010B50446072C00DD3F
:1018D00010BD28480470204604EBD0714910A4EBD9
:1018E000410139B9F020244908804FF4A070234900
:1018F000088006E04FF4A0701F490880F0201F49BF
:101900000880362000F0AEF9082141EA441000F0CA
:10191000ADF92A2000F0A6F9002000F0A7F9002078
:1019200000F0A4F914490988491EC1F3072000F00A
:101930009DF911490978491EC8B200F097F92B208A
:1019400000F090F9002000F091F9002000F08EF9ED
:101950000A490988491EC1F3072000F087F90749A1
:101960000978491EC8B200F081F92C2000F07AF9FC
:1019700000BFADE73C000020380000203A00002006
:1019800010B5FFF7D3FEFFF78FFE0120FFF7E4FC51
:1019900000F052F900F038F802480078FFF794FFA1
:1019A00010BD00003C0000202DE9F04104460D462A
:1019B00016461F462A2000F055F9201200F056F96D
:1019C000E0B200F053F9A119491EC1F30F2000F055
:1019D0004DF9A119491EC8B200F048F92B2000F0BA
:1019E00041F9281200F042F9E8B200F03FF9E91994
:1019F000491EC1F30F2000F039F9E919491EC8B298
:101A000000F034F9BDE8F08110B5CF2000F02AF9DC
:101A1000002000F02BF9812000F028F9302000F0A0
:101A200025F9ED2000F01EF9642000F01FF90320D5
:101A300000F01CF9122000F019F9812000F016F9CD
:101A4000E82000F00FF9852000F010F9102000F0D8
:101A50000DF9782000F00AF9CB2000F003F93920C5
:101A600000F004F92C2000F001F9002000F0FEF84D
:101A7000342000F0FBF8022000F0F8F8F72000F026
:101A8000F1F8202000F0F2F8EA2000F0EBF8002056
:101A900000F0ECF8002000F0E9F8B12000F0E2F8E6
:101AA000002000F0E3F81B2000F0E0F8B62000F082
:101AB000D9F80A2000F0DAF8A22000F0D7F8C02008
:101AC00000F0D0F8352000F0D1F8C12000F0CAF8BD
:101AD000112000F0CBF8C52000F0C4F8452000F03C
:101AE000C5F8452000F0C2F8C72000F0BBF8A220DE
:101AF00000F0BCF8F22000F0B5F8002000F0B6F8D5
:101B0000262000F0AFF8012000F0B0F8E02000F04F
:101B1000A9F80F2000F0AAF8262000F0A7F824204A
:101B200000F0A4F80B2000F0A1F80E2000F09EF8C1
:101B3000092000F09BF8542000F098F8A82000F04D
:101B400095F8462000F092F80C2000F08FF817204E
:101B500000F08CF8092000F089F80F2000F086F8DA
:101B6000072000F083F8002000F080F8E12000F06A
:101B700079F8002000F07AF8192000F077F81B209F
:101B800000F074F8042000F071F8102000F06EF8F6
:101B9000072000F06BF82A2000F068F8472000F0DA
:101BA00065F8392000F062F8032000F05FF80620A5
:101BB00000F05CF8062000F059F8302000F056F8EC
:101BC000382000F053F80F2000F050F8362000F0D5
:101BD00049F8C82000F04AF82A2000F043F8002015
:101BE00000F044F8002000F041F8002000F03EF83A
:101BF000EF2000F03BF82B2000F034F8002000F03C
:101C000035F8002000F032F8012000F02FF83F20D6
:101C100000F02CF83A2000F025F8552000F026F8C6
:101C2000112000F01FF80348FFF7BCFB292000F04B
:101C300019F810BDFCBF020010B54FF40061084850
:101C4000FFF7DCF940F6FF20FFF7ACFB4FF4006133
:101C50000348FFF7D5F940F6FF20FFF7A3FB10BDBF
:101C6000002001404FF0D841088070474FF0DA4122
:101C7000088070472DE9FC4F0C461E464FEA004A8B
:101C80009AFBF2FA0AF1010ACDF804A04FEA044ADD
:101C90009AFBF6FA0AF1010ACDF800A04FF000090C
:101CA000202801DBBDE8FC8F00FB04FABAF1000F2D
:101CB00000D1F7E700FB04FABAF5806F00DBF1E72B
:101CC00002FB06FABAF1000F00D1EBE702FB06FABD
:101CD000BAF5804F00DBE5E7454BDDF834A0BAF1FB
:101CE000000F2BD100211FE0002517E0DDF82CA00C
:101CF0001AF801A04FF0800B4BFA05FB0AEA0B0A19
:101D0000BAF1000F02D04FF0010A01E04FF0000AD3
:101D100003F801AB05F1010A1FFA8AF5082DE5DB8E
:101D200001F1010A1FFA8AF104FB00FA4FEAEA7B8B
:101D30000AEB5B7BB1EBEB0FD6DB2AE000211FE067
:101D4000002517E0DDF82CA01AF801A04FF0800B59
:101D50004BFA05FB0AEA0B0ABAF1000F02D04FF06A
:101D6000010A01E04FF0000A03F801AB05F1010A96
:101D70001FFA8AF5082DE5DB01F1010A1FFA8AF145
:101D800004FB00FA4FEAEA7B0AEB5B7BB1EBEB0F5B
:101D9000D6DB174B174F4FF0000C1AE04FF0000A3C
:101DA0004FEA194B00FB0B3ED0460AE00EEB1A4BF4
:101DB0009BF800B007F808B0DDF804B0DA4408F189
:101DC00001089045F2D3DDF800B0D94417440CF176
:101DD000010CB445E2D3DFF81CA0CDF830A0DDF84B
:101DE00030A00AF1010ACDF830A000BF5AE7000088
:101DF000704000207000002070B5044600F00CF820
:101E0000C5882B460348028821460020FFF7B4FA14
:101E100070BD0000380000200148006870470000D5
:101E20004000002010B50246012000E050430B00A6
:101E3000A1F10104E1B2F9D110BD0000024A108005
:101E4000024A118070470000440000204600002034
:101E500001490860704700004000002001490880E7
:101E6000704700004400002008B50121082000F060
:101E700013FC2020ADF8000010208DF80300032093
:101E80008DF8020069460F48FFF724F80120ADF8ED
:101E9000000069460B48FFF71DF80220ADF800006E
:101EA00069460848FFF716F820210648FFF7A8F80A
:101EB00001210448FFF7A4F802210248FFF7A0F827
:101EC00008BD0000000C014010B50446412C24D18F
:101ED00008210846FEF7E2FC3D21112001F0EAFA54
:101EE0008621172001F0E6FA7F21262001F0E2FA90
:101EF0001E212D2001F0DEFA00212C2001F0DAFA5B
:101F00008D212A2001F0D6FA3E212B2001F0D2FAB1
:101F10000220FEF79FFD00F0EAF810BD08B5012190
:101F2000802000F0B9FB0120ADF8000010208DF8F2
:101F3000030003208DF8020069460F48FEF7CAFF30
:101F40000220ADF8000069460B48FEF7C3FF0420ED
:101F5000ADF8000069460848FEF7BCFF01210648BD
:101F6000FFF74CF802210448FFF748F80421024823
:101F7000FFF744F808BD0000001C014000BFFEE769
:101F8000704708B506208DF8000001208DF801008B
:101F900000208DF8020001208DF80300684600F053
:101FA00007F828208DF80000684600F001F808BD09
:101FB00070B5002100230F22C47804B3154C2468A7
:101FC00004F4E064C4F5E064210AC1F10403CA40EA
:101FD000447804FA03F184781440214309010E4C3B
:101FE0000678A155047804F01F050124AC4005785B
:101FF0006D11AD0005F1E025C5F8004109E0047858
:1020000004F01F050124AC40044D0678761145F814
:10201000264070BD0CED00E000E400E080E100E04F
:1020200002490143024A1160704700000000FA05AE
:102030000CED00E0FCB502462F2300BF00208DF818
:1020400005008DF804008DF803008DF802000120D2
:102050008DF8010007208DF800002F2300250521B1
:10206000002409E0581EC3B2072C02DA601CC4B277
:1020700002E00024481EC1B2505C8027274138404E
:1020800008B90029EEDCA3F10800C5B21EE0052165
:1020900018E0481E1DF8000000F0800018B100296B
:1020A00001DD012600E000261DF801004006000EBB
:1020B0000DF801001DF801003044C0B20DF8010018
:1020C000481EC1B2FF29E4DB681EC5B2002DDED177
:1020D000002106E0505C1DF8017078405054481C07
:1020E000C1B20529F6DD082BA8DC1078FCBD10B5BF
:1020F000142000F08BFB044604F0030018B9032100
:10210000142000F062FE10BDF0B587B00546002730
:1021100008210846FEF7C2FB00210D2001F0CAF994
:1021200080210E20FEF7BAFB93208DF808002020B6
:102130008DF8090001A802AB022202A900900C2030
:1021400000F053F80646262E10D1002407E002A81E
:10215000005D285502A8005D4740601CC4B2042CF5
:10216000F5DB02A8005DB84200D0BB2680210E201E
:1021700000F02BFE304607B0F0BD2DE9F04387B0EC
:1021800006460F46904699468DF808608DF809700E
:10219000002406E018F8041002AAA01C1154601CC8
:1021A000C4B2062CF6DB002407E019F8041002AADA
:1021B00004F108001154601CC4B2062CF5DB01A820
:1021C00002AB0C2202A900900E2000F00EF805468A
:1021D000262D05D1082000F019FB00F0080000B9F9
:1021E000BB25284607B0BDE8F0832DE9FE4F064623
:1021F000884691469A46DDF830B0BB200290002018
:10220000019000900C2E06D00E2E09D112200190C4
:102210001020009005E0772001903020009000E031
:1022200000BF00BF019840F08001022001F042F998
:1022300080210420FEF732FB0021012001F03AF951
:1022400080210A2000F0C1FD002505E018F80510E6
:10225000092001F02FF96D1C4D45F7D331460120BF
:1022600001F028F90C2E03D180210D2000F0ADFDE6
:102270004FF47A7500BF042000F0C8FA04466D1EC2
:1022800035B104F0010018B9009820400028F2D0C0
:1022900080210D20FEF702FB95B3062000F0B6FA70
:1022A00000F01B0068BB262002900198204000F03F
:1022B000010008B1CC2002900C2E24D10A2000F09D
:1022C000A5FA04460C2000F0A1FA00F007072FB190
:1022D000601E07EBC000CBF8000002E0E000CBF886
:1022E000000004B90124122C00DD1224002505E0B1
:1022F000092000F08BFA0AF805006D1CA542F7D3FF
:1023000001E0BB20029080210C2000F05EFD002146
:10231000012001F0CFF80298BDE8FE8F00B587B02C
:1023200050208DF8080000208DF809000DF10A02F8
:10233000022102A8FEF77CFA01A802AB042202A93E
:1023400000900C20FFF751FF262007B000BDF0B52C
:1023500087B005460E4630208DF808008DF80950EC
:102360000DF10A02022102A8FEF762FA01A802ABEF
:10237000042202A900900C20FFF737FF0746262F02
:102380000CD10198902809D1002404E002A8005D36
:102390003055601CC4B2102CF8DB00E0BB27384677
:1023A00007B0F0BD70B588B005460C460821084658
:1023B000FEF774FA07210D2001F07CF803211420A8
:1023C00000F003FD8DF80C5002A803AB012203A915
:1023D00000900C20FFF709FF0646262E09D102982F
:1023E000102806D19DF80C0020709DF80D0060703B
:1023F00000E0BB26304608B070BD000010B540219B
:102400001D48FEF7FDFD0120FEF724FB40211A4880
:10241000FEF7F4FD0120FEF71DFB40211648FEF7F4
:10242000EFFD0120FEF716FB0F21012001F042F81D
:1024300000BF012000F0EAF900F010000028F8D1F8
:102440000120FEF707FB3D21112001F033F81E218A
:102450002D2001F02FF800212C2001F02BF88D21E8
:102460002A2001F027F83E212B2001F023F84021FB
:10247000152001F01FF810BD000C014070B588B0A8
:10248000054693208DF80C0070208DF80D0000207B
:102490008DF8120000240BE0295D03AAA01C115442
:1024A0009DF81200295D48408DF81200601CC4B2EE
:1024B000042CF1DB0DF11302072103A8FEF7B8F994
:1024C00008210846FEF7EAF902A803AB092203A98E
:1024D00000900C20FFF789FE0646262E03D10298B5
:1024E000182800D100E0BB26304608B070BDF0B51A
:1024F00087B006460F46A0208DF808008DF80960C9
:102500000DF10A02022102A8FEF792F901A802AB1E
:10251000042202A900900C20FFF767FE0546262D35
:1025200008D10198042805D19DF8080000F00F009B
:102530000A2800D0BB25262D22D1002404E0385DD6
:1025400002A90855601CC4B2102CF8DB06AA1021A1
:1025500002A8FEF76DF901A802AB122202A90090B1
:102560000C20FFF742FE0546262D08D101980428CD
:1025700005D19DF8080000F00F000A2800D0BB2507
:10258000284607B0F0BD704710B500F00DF84021A7
:102590000348FEF735FD80210248FEF731FD10BDEE
:1025A000000C01400008014008B50121042000F0A2
:1025B00073F88020ADF8000003208DF80200102091
:1025C0008DF8030069462248FEF784FC01210820AB
:1025D00000F062F82020ADF8000003208DF8020022
:1025E00010208DF8030069461948FEF773FC01219D
:1025F000082000F051F84020ADF8000003208DF8CD
:10260000020010208DF8030069461148FEF762FCB5
:102610000121082000F040F81020ADF8000004204F
:102620008DF8030069460A48FEF754FC0121082092
:1026300000F032F84020ADF8000003208DF80200D1
:1026400010208DF8030069460248FEF743FC08BDE0
:1026500000080140000C014029B1064A52690243BA
:10266000044B5A6104E0034A52698243014B5A61A8
:10267000704700000010024029B1064AD2690243A7
:10268000044BDA6104E0034AD2698243014BDA6108
:10269000704700000010024029B1064A92690243C7
:1026A000044B9A6104E0034A92698243014B9A61A8
:1026B000704700000010024030B5002100220024C5
:1026C00000232D4D6D6805F00C0121B1042905D0C2
:1026D000082923D105E0294D056022E0274D05603A
:1026E0001FE0254D6D6805F47012234D6D6805F4EB
:1026F0008034022505EB92421CB9214D55430560FB
:102700000BE01D4D6D6805F400351DB11C4D5543A2
:10271000056002E0194D5543056002E0174D056064
:1027200000BF00BF144D6D6805F0F0010909154D9B
:102730006B5C0568DD4045600F4D6D6805F4E06138
:10274000090A104D6B5C4568DD4085600A4D6D6877
:1027500005F46051C90A0B4D6B5C4568DD40C560EE
:10276000054D6D6805F44041890B074D6B5CC568EC
:10277000B5FBF3F5056130BD0010024000127A0090
:1027800000093D0014000020240000202DE9FF4135
:1027900007460D46BB2669463846FFF7D8FD064674
:1027A000262E03D0304604B0BDE8F081002412E0AC
:1027B0001DF8041004F108001DF80000814208D043
:1027C0001DF80410201D1DF80000C043814200D0F8
:1027D00003E0601CC4B2042CEADB00BF042C10D15F
:1027E00026269DF800009DF8011000EB01209DF8C1
:1027F000021000EB01409DF8031000EB016028601F
:1028000002E0BB26002028603046CCE770B50446C5
:102810007E2000EA440040F0800580210748FEF752
:10282000EDFB284600F086FA00F05EFA06468021AD
:102830000248FEF7E5FB304670BD0000000801408D
:10284000002107E0002201E0531C9AB28242FBDB28
:102850004B1C99B20429F5DB7047000008B5012133
:102860000820FFF719FF4FF44040ADF80000142096
:102870008DF8030003208DF8020069460548FEF735
:1028800029FB4FF4004003491031086040100860F4
:1028900008BD0000000C01402DE9FC4F04460D4628
:1028A0004FF00009CA46CB466006040E00BF00BFC9
:1028B00000F000F9ABF1010000F0FF0BBBF1000FDD
:1028C00000D136E000F0D4F8204600F0B9F800B1AD
:1028D000EEE7284600F0B4F800B1E9E700F0C8F8E8
:1028E000611CC8B200F0ACF800B1E1E7002000F0D4
:1028F0006BF88146002000F067F88246012000F066
:1029000063F8804600F0D6F88DF805408DF8045045
:10291000601CC0B28DF803008DF802908DF801A004
:1029200000208DF800006846FFF784FB0646464508
:10293000BDD100BF49EA0A273846BDE8FC8F000038
:102940002DE9F04707210020FFF7A6FF8246FDF79B
:1029500024FD0646074A084BFDF7ADFC04464FF040
:102960006632064BFDF7A1FC8046FDF736FDBDE85B
:10297000F08700007B14AE47E17A943F6612714005
:1029800010B54FF480400F4908600220FFF758FF50
:102990004FF400400B4908600520FFF751FF09483C
:1029A0000838006800F4804008B1012400E00024E9
:1029B0004FF400400349091D08600320FFF740FF62
:1029C000204610BD100C014070B5064608250DE0EC
:1029D000FFF7D6FF20B16006040E44F0010403E0C7
:1029E0006006040E04F0FE04681EC5B2002DEFD18F
:1029F000304600F003F8204670BD000010B50446D4
:102A000024B94FF480400D49086004E04FF4804041
:102A10000A49091F08600220FFF712FF4FF4004027
:102A20000649091F08600620FFF70AFF4FF400401F
:102A3000024908600320FFF703FF10BD140C01409A
:102A4000F0B5044608250CE004F0800008B101262A
:102A500000E000263046FFF7D1FF6006040E681E36
:102A6000C5B2002DF0D1FFF78BFF07463846F0BD09
:102A700000B54FF480400E4908600520FFF7E0FEE6
:102A80004FF400400A4908600520FFF7D9FE4FF4D3
:102A900080400749091D08600520FFF7D1FE4FF46B
:102AA00000400349091D08600520FFF7C9FE00BD6D
:102AB000100C014000B54FF400400D49086005209E
:102AC000FFF7BEFE4FF48040094908600520FFF77C
:102AD000B7FE4FF400400649091F08600520FFF7C4
:102AE000AFFE4FF480400249091F086000BD00009E
:102AF000140C014021B1028842F04002028004E03F
:102B000002884FF6BF731A400280704770B50546C1
:102B10000C46164610211048FEF770FA032000F00C
:102B20007BF8C4F3074000F077F8C4F3072000F007
:102B300073F8E0B200F070F804E0FF2000F06CF8E9
:102B400028706D1C3000A6F101018EB2F5D1102164
:102B50000148FEF755FA70BD0008014000B587B086
:102B600001210803FFF798FD0121C420FFF794FD20
:102B70001020ADF8040003208DF8060010208DF819
:102B8000070001A92248FEF7A5F92020ADF80400AE
:102B900018208DF8070001A91D48FEF79BF9402079
:102BA000ADF8040001A91A48FEF794F98020ADF8A9
:102BB000040001A91648FEF78DF910211448FEF70C
:102BC0001FFA0020ADF808004FF48270ADF80A003B
:102BD0000020ADF80C000220ADF80E000120ADF889
:102BE00010004002ADF812000820ADF814000020DB
:102BF000ADF816000720ADF8180002A9054800F04E
:102C000055F801210348FFF775FF07B000BD00002C
:102C1000000801400030014010B504464FF48050D8
:102C2000194908600AE018490868411E164A1160EF
:102C300020B9002000F0A8F8C0B210BD022113484E
:102C400000F026F80028EED02146104800F02CF8BD
:102C50004FF480500C4908600AE00B490868411E97
:102C6000094A116020B9012000F08EF8C0B2E4E7F3
:102C70000121064800F00CF80028EED0034800F0CF
:102C800010F8C0B2D9E70000640000200030014015
:102C90000246002013890B400BB1012000E0002008
:102CA00070470146888970478181704710B50022BE
:102CB000028802F441520B884C8823438C882343BA
:102CC000CC8823430C8923434C8923438C89234399
:102CD000CC8923431A430280838B4FF2FF74234035
:102CE00083830B8A038210BD70B500251CE060064B
:102CF000040E20210E48FEF781F90220FDF7AAFEFE
:102D000010210B48FEF771F9012801D144F00104AC
:102D10000220FDF79FFE20210548FEF771F90220F1
:102D2000FDF798FE681CC5B2082DE0DB204670BD9B
:102D30000008014070B50446002520E004F0800042
:102D400020B140210F48FEF75BF903E040210D4818
:102D5000FEF754F90220FDF77DFE20210948FEF719
:102D60004DF90220FDF776FE20210648FEF748F9CE
:102D70000220FDF76FFE6006040E681CC5B2082D28
:102D8000DCDB70BD0008014010B50446214602A0FE
:102D900000F0A8FB002010BD3C3C2D464C415348A0
:102DA0002D4552524F522D3E3E2053504920B5C81A
:102DB000B4FDB3ACCAB1216572726F72436F6465C2
:102DC000203D2025640A0000704770B505460C467A
:102DD0002846FFF71BFD064646EA0401284600F098
:102DE00069FB70BD10B500F001F810BD0CB50020F6
:102DF000019000903348006840F480303149086009
:102E000000BF3048006800F4003000900198401C7A
:102E10000190009818B90198B0F5A06FF1D1294838
:102E2000006800F4003010B10120009001E00020A3
:102E300000900098012843D12348006840F010001A
:102E4000214908600846006820F003000860084631
:102E5000006840F0020008601A484068194948605C
:102E60000846406848600846406840F48060486012
:102E70000846406820F47C1048600846406840F4EA
:102E8000E81048600846006840F08070086000BFA5
:102E90000C48006800F000700028F9D0094840682C
:102EA00020F00300074948600846406840F00200EF
:102EB000486000BF0348406800F00C000828F9D1C2
:102EC0000CBD0000001002400020024010B500F0D0
:102ED000D7F910BD30B51A4800681A4AB0FBF2F1B4
:102EE000B1F1807F01D301201DE021F07F40401E21
:102EF0004FF0E022506150170F22002807DA130725
:102F00001D0E114B00F00F04241F1D5503E0130785
:102F10001C0E0E4B1C5400BF00204FF0E0229061AD
:102F200007201061002008B100BFFEE74FF0E0204D
:102F3000006920F001004FF0E021086130BD000081
:102F40000000002040420F0018ED00E000E400E027
:102F500010B51348006840F00100114908600846A8
:102F60004068104908400E494860084600680E490C
:102F700008400B4908600846006820F4802008607B
:102F80000846406820F4FE0048604FF41F00886047
:102F9000FFF728FF4FF000600449086010BD0000F3
:102FA000001002400000FFF8FFFFF6FE08ED00E011
:102FB00070B58EB00121880700F0F5F801287DD1A9
:102FC00059480068401C58490860FEF725FFC08832
:102FD00000EB400101EB001084B22046FEF70CFF2D
:102FE000514800684FF46161B0FBF1F201FB12003F
:102FF0003C21B0FBF1F201FB12044B4800684FF496
:103000006161B0FBF1F201FB12003C21B0FBF1F574
:10301000454800684FF46161B0FBF1F62B4632463B
:1030200042A101A8009400F06DFAFEF7F5FEC088F9
:1030300000EB400101EB001084B201A92046FEF72D
:1030400049FA3948006800F00100002865D13C4881
:10305000FDF7A8FC012838D13948C378827839A116
:1030600001A800F04FFAFEF7D7FEC08800EB001071
:1030700084B22046FEF7C0FEFEF7CEFEC08800EB0D
:10308000001084B201A92046FEF724FA2C484378A8
:10309000027831A101A800F035FAFEF7BDFEC08824
:1030A00000EBC0004004040C2046FEF7A5FEFEF72E
:1030B000B3FEC08800EBC000400400E031E0040C27
:1030C00001A92046FEF706FA27E0FEF7A5FEC08814
:1030D00000EB001084B22046FEF78EFEFEF79CFE49
:1030E000C08800EBC0004004040C2046FEF784FEBC
:1030F000FEF792FEC08800EB001084B21BA12046B0
:10310000FEF7E8F9FEF788FEC08800EBC000400437
:10311000040C16A12046FEF7DDF90121880700F016
:1031200033F80EB070BD00002800002054696D65B2
:103130003A2564682025646D202564730000000032
:103140002D00002054656D70657261747572653A6A
:1031500025642E25642E430048756D696469747971
:103160003A25642E256425252000000052656164FF
:10317000204448543131204552524F520000000043
:103180007047CA4302827047CA430282704721B126
:10319000028842F00102028004E002884FF6FE73CA
:1031A0001A400280704730B50246002000230024F8
:1031B000158A05EA0103958905EA010413B10CB1EA
:1031C000012000E0002030BD1AB183890B438381C8
:1031D00002E083898B4383817047000000220288CC
:1031E0001D4B98420ED01D4B98420BD0B0F1804F32
:1031F00008D01B4B984205D01A4B984202D01A4B6C
:10320000984204D14FF68F731A404B881A43174BDC
:10321000984207D0164B984204D04FF6FF431A400D
:10322000CB881A4302808B8883850B8803850A4BE1
:1032300098420BD0094B984208D00E4B984205D0CB
:103240000D4B984202D00D4B984201D10B7A038668
:103250000123838270470000002C014000340140AC
:103260000004004000080040000C00400010004036
:10327000001400400040014000440140004801406B
:103280000448006820B103480068401E01490860F6
:103290007047000068000020704721B1828942F425
:1032A0000052828104E082894DF6FF731A408281C8
:1032B0007047000000B585B001210420FFF7ECF94C
:1032C00001218803FFF7E8F94FF40070ADF8100012
:1032D00018208DF8130003208DF8120004A913485C
:1032E000FDF7F8FD4FF48060ADF8100004208DF874
:1032F000130004A90D48FDF7EDFD4FF4E1300090F7
:103300000020ADF80400ADF80600ADF80800ADF8F7
:103310000C000C20ADF80A006946054800F018F8CA
:1033200001210348FFF7B9FF05B000BD00080140C7
:103330000038014002460020B1F5007F00D100BFF7
:1033400013880B400BB1012000E000207047000003
:103350002DE9F04786B005460E460024A24600BF80
:10336000A1460027B08900B100BF2F462C8A4CF639
:10337000FF700440F08804432C82AC894EF6F310B1
:103380000440B08831890843718908430443AC8103
:10339000AC8A4FF6FF400440B0890443AC8201A8D8
:1033A000FFF78AF91F48874202D1DDF810A001E03B
:1033B000DDF80CA0A88900F4004040B10AEBCA0077
:1033C00000EB0A1031684900B0FBF1F807E00AEBA6
:1033D000CA0000EB0A1031688900B0FBF1F86420E4
:1033E000B8FBF0F004012009642101FB1089A889D1
:1033F00000F4004040B1322000EBC900B0FBF1F016
:1034000000F00700044308E0322000EB09106421BB
:10341000B0FBF1F000F00F0004432C8106B0BDE8D2
:10342000F087000000380140C1F308028280704735
:1034300000BFFEE77FB505460C46E0B28DF8000000
:10344000200A8DF80100200C8DF80200200E8DF866
:103450000300E043C0B28DF80400E043000A8DF899
:103460000500E043000C8DF80600E043000E8DF8E7
:103470000700E0B28DF80800200A8DF80900200C42
:103480008DF80A00200E8DF80B008DF80C50E843E3
:10349000C0B28DF80D008DF80E50E843C0B28DF823
:1034A0000F0069462846FFF722F80646304604B06A
:1034B00070BD000070B504460D467E2000EA44064B
:1034C00080210748FDF79AFD3046FFF733FC284678
:1034D000FFF730FC80210248FDF792FD70BD00002F
:1034E000000801400FB4054B10B503A9044A029827
:1034F00000F0DEF810BC5DF814FB0000E93D0008A8
:103500006C0000200FB4084B10B504A902AA039860
:1035100000F0CEF8044602A9002000F060FC20462E
:1035200010BC5DF814FB0000DF3D000802E008C895
:10353000121F08C1002AFAD170477047002001E02D
:1035400001C1121F002AFBD1704700002DE9FF5F67
:10355000DDE90220010DDDF838B0024318D044F651
:103560001050A1F2FF3141430D140F98012820D0D3
:10357000A5EB0B00401C5FEA000A4FF00004474E29
:10358000DFF81C91A046504616D5CAF1000728E086
:103590000F98012443A2012808D0002100980F9B16
:1035A000C0E90021C0E90243BDE8FF9F6FEA0B01BB
:1035B000F4E7CBF10000DEE7074612E0F80707D09A
:1035C0002246334640464946FCF775FE804689460A
:1035D0002246334610461946FCF76DFE04460E4659
:1035E0007F10002FEAD1DDE90201BAF1000F424657
:1035F0004B4602DAFCF75FFE01E0FDF711F80446E6
:103600000E460022284BFDF793F803D84FF0FF3009
:10361000014607E00022254B20463146FCF7A4FD79
:10362000FDF76DF8102409E0002C0ADB0A220023C4
:10363000FCF710FF019B30321A55641E50EA01025C
:10364000F2D1641C019AC4F1110314440F9A012AA7
:1036500003D0012208430DD10AE0084304D0002022
:103660004FF0110B0F9080E7A3EB0B056D1E0DE0E3
:103670005B4504DD4FF0000205F1010504E003DACB
:103680004FF00002A5F10105002AECD000980F9937
:10369000C0E90231C0E9004586E70000000024408F
:1036A0000000F03F300000000000F0430000E03F69
:1036B0002DE9FF4F95B09B468946064600250FE24F
:1036C000252877D100242746F84A0121059400E0F7
:1036D000044316F8013F203B01FA03F01042F7D1F2
:1036E00030782A2811D06FF02F033078A0F1300203
:1036F000092A16D8059A44F0020402EB820203EB71
:1037000042021044761C0590EFE759F8042B05920D
:10371000002A03DA504244F40054059044F00204B5
:10372000761C30782E2816D116F8010F44F00404C8
:103730002A280DD06FF02F023078A0F13003092B2A
:1037400009D807EB870302EB4303C718761CF3E79E
:1037500059F8047B761C30786C280FD006DC4C2896
:1037600017D068280DD06A2814D104E0742810D02E
:103770007A280FD10DE044F400140AE044F48014D8
:1037800001E044F440147278824202D104F58014BE
:10379000761C761C307866280BD013DC582877D03E
:1037A00009DC002875D04528F6D04628F4D04728F3
:1037B0001AD19DE118E0632835D0642879D06528B6
:1037C00012D195E1702873D008DC6728F1D0692800
:1037D0006FD06E280DD06F2806D1B5E073282CD09D
:1037E000752875D0782874D05A46179990476D1C63
:1037F00075E1C4F30250022809D003280DD0D9F88E
:10380000001004280DD00D6009F1040967E1D9F812
:103810000010EA17C1E90052F6E7D9F800100D8050
:10382000F2E70D70F0E719F8041B8DF80010002086
:103830008DF80100EA46012003E059F804AB4FF08F
:10384000FF3061074FF0000102D40DE008F10101E3
:103850008846B9420FDA8045F8DB1AF808100029CB
:10386000F4D108E008F1010188468142FADB1AF838
:1038700008100029F6D105985B46A0EB0807214601
:103880003846179A00F094FA284400EB080507E040
:103890004DE029E10DE01AF8010B5A4617999047BF
:1038A000B8F10108F7D25B4621463846179A13E172
:1038B00042E00A220092C4F302524FF0000A022AA8
:1038C00008D059F804CB032A4FEAEC710AD00DE076
:1038D00029E02AE009F1070121F00702F2E802C11C
:1038E000914609E00FFA8CFC4FEAEC71042A03D1EF
:1038F0004FFA8CFC4FEAEC71002907DA0A460021E6
:10390000DCF1000C61EB02012D2202E0220504D55E
:103910002B228DF80420012203E0E20701D02022AF
:10392000F7E7904659E00A2102E010220DE010214D
:103930004FF0000A00910BE010224FF0000A44F013
:1039400004040827009203E008224FF0000A0092C6
:10395000C4F30252022A05D059F804CB0021032AED
:1039600008D009E009F1070121F00702F2E802C1DD
:10397000914605E01FFA8CFC042A01D10CF0FF0CE3
:103980004FF00008220728D5702806D0009B83F04E
:10399000100353EA0A0305D00EE040228DF80420FC
:1039A000012208E05CEA010206D030228DF80420F2
:1039B0008DF8050002229046009B83F0080353EA2D
:1039C0000A030AD15CEA010201D1620705D530225F
:1039D0008DF804204FF001087F1E582804D034A031
:1039E00003900EA802900DE036A0F9E7534660461A
:1039F000009AFCF72FFD84460398825C0298401ED3
:103A0000029002705CEA0100F0D1029806A9081A3F
:103A100000F1200A600702D524F4803400E0012779
:103A2000574502DDA7EB0A0000E0002000EB0A0189
:103A3000009005984144401A0590E00306D45B4687
:103A40002146179A059800F0B3F90544002706E0CF
:103A500001A85A46C05D179990476D1C7F1C4745C9
:103A6000F6DBE0030CD55B462146179A059800F07B
:103A70009FF9054404E030205A46179990476D1C81
:103A80000099481E00900029F5DC08E00298029990
:103A90005A460078491C0291179990476D1CBAF15B
:103AA0000001AAF1010AF1DC65E10000092801002A
:103AB00030313233343536373839616263646566A4
:103AC0000000000030313233343536373839414266
:103AD000434445460000000000F058F90544761CB8
:103AE000307800287FF4ECAD19B02846BDE8F08F9F
:103AF000620700D4062709F1070222F0070CFCE850
:103B00000223E14603F000485FEA080C02D00FF2FE
:103B1000702C0DE05FEA045C02D50FF2682C07E020
:103B20005FEAC47C02D00FF2602C01E0AFF2700CAF
:103B30004FF0FF3823F00043CDF850C065280CD07B
:103B400006DC452809D046281DD047283DD13DE058
:103B5000662818D067287ED138E00021112F01DBBC
:103B6000112000E0781CCDE9000106A90EA8FFF79E
:103B7000EDFCDDE90F010E9A03910021009207F19F
:103B8000010A04914DE04FF000400097CDE901108B
:103B900006A90EA8FFF7DAFCDDE90F0203920E9BDF
:103BA00011990022DDF80CA00093049211B9791C40
:103BB00000EB010AB7EB0A0004D4C0F1FF3007F1B3
:103BC000010A0490AAEB0700019044E0012F00DAFB
:103BD00001270021112F01DD112000E03846CDE939
:103BE000000106A90EA8FFF7B1FCDDE90F010E9A4E
:103BF0000391002104910092BA4621070CD4039945
:103C0000514500DA8A46BAF1010F05DD009AAAF1A2
:103C10000101515C302908D0B84202DA10F1040FDA
:103C200006DA0121CDE9011015E0AAF10101E9E769
:103C3000002805DC049901440491AAEB000102E08C
:103C4000411C514500DD8A460499401A401C0190F0
:103C50004FF000400290200704D40198504501DB4A
:103C6000CDF8048000208DF84F0002980DF14F0729
:103C7000B0F1004F25D02B200E9002984FF0020893
:103C800000280CDA404202902D200E9007E00A2115
:103C90000298FCF7C9FB3031029007F8011DB8F11A
:103CA0000001A8F10108F2DC02980028EFD1791E8A
:103CB0000E980870307800F0200040F0450007F8BA
:103CC000020D12A8C01B00F107081498007800B17B
:103CD000012000EB0A01019801EBE07105984144D5
:103CE000401A401E0590E00306D45B462146179A11
:103CF000059800F05DF805441498007818B15A460C
:103D0000179990476D1CE00324D55B462146179A0E
:103D1000059800F04DF805441CE00498002807DBE6
:103D2000DDE90301884203DD0098405C179901E05A
:103D3000179930205A469047049805F10105401C18
:103D400004900198401E019004D12E205A461799E4
:103D500090476D1CBAF10001AAF1010ADDDC05E013
:103D600017F8010B5A46179990476D1CB8F10001DE
:103D7000A8F10108F4DC5B462146179A0598ABE6EA
:103D80002D0000002B000000200000002DE9F04174
:103D9000044600251E461746880404D405E039462B
:103DA0002020B0476D1C641EF9D52846BDE8F0817F
:103DB0002DE9F041044600251E469046C80301D572
:103DC000302700E02027880404D505E04146384626
:103DD000B0476D1C641EF9D52846BDE8F0810A681D
:103DE000531C0B601070704770B504460D46E1B26D
:103DF0000548FFF719FB00BF80210348FFF79AFA37
:103E00000028F9D0204670BD003801401CB5FFF7EE
:103E100061F8FDF7B5FDFFF74DFAFEF71FFDFEF760
:103E200023F8FEF77BF8FEF7AFFB4FF4A060FEF738
:103E3000F7F8FCF7F6FFFCF7B8FFFCF7E3FE062007
:103E4000FDF742FD1648FEF703F800210846FDF78E
:103E5000F5FF144803881448028800210846FDF73E
:103E60008BFA1F20FDF7FAFF002010A130231A461D
:103E7000CDE9001001465420FDF760FBFEF7BEFAC5
:103E80004120FEF721F801218807FFF780F9FCF7B0
:103E900029FD07A0FFF726FB01E0FDF7DFF8FCE7AF
:103EA000480000203A000020380000204F55540000
:103EB0000D0A33313138303031343534BACEC9DCC3
:103EC000B9E2A1AAA1AAB6E0B9A6C4DCC3C5BDFBEC
:103ED0000D0A00007CB504460120284908604FF413
:103EE0007840FDF7BBFF04F0010080B1FDF794FFBF
:103EF000C08800EB40004004050C002020A13023C6
:103F00001A46CDE9001029460C20FDF717FB04F0F6
:103F1000080078B1FDF780FFC08800EBC00085B2D3
:103F200000201AA130231A46CDE9001029460C20A2
:103F3000FDF704FB18480078012803D11F20FDF786
:103F40008DFF06E01448007818B94FF4FC60FDF7C7
:103F500085FF1248FCF77EFDFDF75EFFC08800EB91
:103F600040004004050C6423F02229460020FDF7A0
:103F700003FA01200149091D08607CBD101C0140A5
:103F80004F5645522054494D450000004849474886
:103F90002054454D500000002C00002020A10700B7
:103FA00010B50420044908600448FCF753FD0420C0
:103FB0000149091D086010BD101C014020A1070027
:103FC00000000000000000000000000000000000F1
:103FD0000000001818181818180800081800000029
:103FE0000000003424242400000000000000000031
:103FF0000000000016247F2424247E2424000000D6
:10400000000000083E6848681C1612127C10100060
:1040100000000061D296740810162949C6000000FD
:10402000000000003C646438724ACE467F00000005
:104030000000001818181800000000000000000020
:1040400000000004081810303030301010180C0434
:10405000000000201008080C0404040C08181020AC
:10406000000000080A341C6A08000000000000007C
:104070000000000000001818187F18181800000031
:1040800000000000000000000000001818083000C8
:104090000000000000000000003C000000000000E4
:1040A00000000000000000000000001818000000E0
:1040B0000000000206040C08081010202040000038
:1040C000000000003C6642475B7342663C00000013
:1040D0000000000018784808080808087E00000062
:1040E000000000003C460606040810207E00000088
:1040F000000000007C0606043C0202067C00000072
:10410000000000000C1C14246444FF0404000000A0
:10411000000000007E6060607E0202067C000000FD
:10412000000000001E306048764242623C00000001
:10413000000000007E0206040C0818103000000089
:10414000000000003C6242361C6642423C00000017
:10415000000000003C664242661A0204780000003B
:1041600000000000000018180000001818000000EF
:1041700000000000000018180000001818083000A7
:1041800000000000000004183060100C0600000061
:1041900000000000000000007E007E000000000023
:1041A000000000000000301804060C102000000081
:1041B000000000301C060606181000101000000059
:1041C0000000001C224141DDB5A5A5AF94C0403CD4
:1041D00000000000181C342426627E43C100000049
:1041E000000000007C4642467C4242427C000000C7
:1041F000000000001E204040404040603E000000A3
:10420000000000007C4642434343424678000000E1
:10421000000000007E6060607E6060607E000000E4
:10422000000000007E6060607E60606060000000F2
:10423000000000001E604040CE4242623E0000008E
:1042400000000000424242427E42424242000000E0
:10425000000000007E181818181818187E000000BA
:10426000000000007C0404040404044478000000FE
:10427000000000004244485070584C444200000086
:104280000000000020202020202020203E000000F0
:10429000000000006266675F5B5BC1C1C100000097
:1042A00000000000626272525A4A4E464600000008
:1042B000000000003C6243C3C3C343623C000000F3
:1042C000000000007C46424246784040400000002A
:1042D000000000003C6243C3C3C343623C180F00AC
:1042E000000000007C6662667C6C64666200000010
:1042F000000000003E6040601C0602027C000000DE
:10430000000000007F18181818181818180000006E
:104310000000000042424242424242623C00000031
:1043200000000000C14342622624341C1800000033
:1043300000000000C1C141495B5B76666600000079
:104340000000000043663418181C2466C3000000F7
:1043500000000000C14266341C1818181800000044
:10436000000000007E02040C181020607E00000097
:104370000000001C10101010101010101010101C55
:10438000000000402020101008080C040602000065
:104390000000003C0C0C0C0C0C0C0C0C0C0C0C3C21
:1043A00000000000181C2462000000000000000053
:1043B000000000000000000000000000000000FFFE
:1043C00000000020100000000000000000000000BD
:1043D0000000000000003C06023E42467A00000059
:1043E0000000004040405C62424242427C000000CB
:1043F0000000000000001E20604060203E00000021
:104400000000000202023E62424242663A000000A0
:104410000000000000003C62427E40603E00000060
:104420000000000F1810107E101010101000000077
:104430000000000000003F66426658403E43423C98
:104440000000004040405C624242424242000000A4
:104450000000001818007808080808087E0000000E
:10446000000000040C007C040404040404040C7820
:10447000000000606060626C787068646200000038
:104480000000007808080808080808087E000000F6
:10449000000000000000764B4B4B4B4B4B000000E4
:1044A0000000000000005C62424242424200000004
:1044B0000000000000003C62424342623C000000F9
:1044C0000000000000005C62424242427C404040EA
:1044D0000000000000003E62424242663A020202D0
:1044E0000000000000006E72636060606000000009
:1044F0000000000000003E20203C06027C0000007E
:10450000000000001010FE10101010101E0000001F
:104510000000000000004242424242663A000000B1
:104520000000000000004342662434181800000018
:10453000000000000000C1C15B5A5E66660000001A
:1045400000000000000062261C181C26620000000B
:1045500000000000000043426624341C181830E0BC
:104560000000000000007E060C1810207E000000F5
:104570000000000E18101010307010101010180EDF
:1045800000000808080808080808080808080808BB
:1045900000000030180808080C0E08080808183039
:1045A0000000000000000000714B06000000000049
:1045B00000000000000000000000000000000000FB
:1045C00000000000000000000000000000000000EB
:1045D00000000000000000000000000000000000DB
:1045E0000000000000000000000003800180018046
:1045F0000180018001800180018001800180000034
:10460000000003C003C00000000000000000000024
:10461000000000000000000000000E700E700E7020
:104620000C3000000000000000000000000000004E
:10463000000000000000000000000000000000007A
:10464000000000000000000000000000061806380E
:1046500006307FFE0C300C300C300C307FFE0C60CE
:104660001C601860186000000000000000000000DE
:10467000000000000000000000C000C00FF83CC8AF
:1046800031C031803D801F8003F001F8031C030C12
:10469000031C3FF83FE00700060000000000000098
:1046A00000000000000000001C007E0E630C631878
:1046B00063307E6000C001800300077C0EE61CC6EC
:1046C00018C630C6607C000000000000000000003A
:1046D000000000000000000000000FE01CF0387037
:1046E00038701C601FC00F003F8C71CC60EC607C88
:1046F00070383CFC1FCE00000000000000000000ED
:104700000000000000000000000003C001800180E4
:104710000180000000000000000000000000000018
:104720000000000000000000000000000000000089
:104730000000000000000000003000E001C0018027
:1047400003000700060006000E000E000E000E001B
:10475000060007000300038001C000E000300000F5
:1047600000000000000000000C0006000380018033
:1047700001C000E000600060007000700070006028
:10478000006000E000C00180038006000C00000013
:1047900000000000000000000000018011881DB82A
:1047A00003C007E03DBC018801800000000000005C
:1047B00000000000000000000000000000000000F9
:1047C00000000000000000000000000000000000E9
:1047D000018001800180018001807FFE01800180D5
:1047E00001800180000000000000000000000000C7
:1047F00000000000000000000000000000000000B9
:1048000000000000000000000000000000000000A8
:1048100003C003C001C001C003801F0000000000EE
:104820000000000000000000000000000000000088
:10483000000000000000000000000FF00000000079
:104840000000000000000000000000000000000068
:104850000000000000000000000000000000000058
:104860000000000000000000000000000000000048
:1048700003C003C003C000000000000000000000EF
:1048800000000000000000000000001800380030A8
:10489000006000E000C001C00180030003000600CA
:1048A0000E000C001C00180030000000000000008A
:1048B0000000000000000000000001800FF01C3824
:1048C000381C301C707E70EE738E7E0E7C0C300CAB
:1048D000381C1E780FE000000000000000000000FF
:1048E00000000000000000000000000007C01FC022
:1048F00039C001C001C001C001C001C001C001C078
:1049000001C03FFC3FFC0000000000000000000070
:104910000000000000000000000003801FF01838B5
:104920000038001800380038007001E003800700EC
:104930001C003FFC3FFC00000000000000000000E5
:104940000000000000000000000007801FF0003899
:1049500000380038003007E007F00038001C001C69
:10496000001820F83FE000000000000000000000F8
:1049700000000000000000000000000000F001B096
:10498000033007300E301C30383070307FFE7FFE31
:104990000030003000300000000000000000000087
:1049A0000000000000000000000000001FF81800D8
:1049B0001800180018001FE000F8001C001C001C64
:1049C000003800F01FC000000000000000000000E0
:1049D00000000000000000000000000003F80F00CD
:1049E0001C001800300037F83C3C300C300C380C00
:1049F000381C1E380FF0000000000000000000000E
:104A00000000000000000000000000003FFC001C4F
:104A1000001800380070006000E001C001800380D1
:104A2000070006000E00000000000000000000006B
:104A30000000000000000000000003C01FF8381C48
:104A4000381C381C1C380FF007F01C78381C300C50
:104A5000381C3C380FF0000000000000000000008F
:104A60000000000000000000000003801FF0383844
:104A7000301C701C700C380C1FFC0FCC001C001874
:104A800000701FE01F800000000000000000000018
:104A90000000000000000000000000000000000016
:104AA000000003C003C001800000000000000000FF
:104AB00003C003C003C000000000000000000000AD
:104AC00000000000000000000000000000000000E6
:104AD000000003C003C001800000000000000000CF
:104AE00003C003C001C001C003800F00000000002C
:104AF00000000000000000000000000000000000B6
:104B0000003800F001C007001E0038000E000780CA
:104B100001C0007000300000000000000000000034
:104B20000000000000000000000000000000000085
:104B30000000000000003FFC000000003FFC3FFCC4
:104B40000000000000000000000000000000000065
:104B50000000000000000000000000000000000055
:104B60001C000F00038001E00078001C007001E0D1
:104B700003800E000C000000000000000000000098
:104B8000000000000000000000000FC000F000382E
:104B900000380038003803F00380030003000000F1
:104BA00000000780078000000000000000000000F7
:104BB000000000000000000000E007F80C0C1806E0
:104BC0003006700363F36633C673CC63CC62CC6685
:104BD000CCE6C7FCE0006000700038101FF0000059
:104BE00000000000000000000000000003C007E01B
:104BF00006E00E700E700C301C3818183FFC3FFC9D
:104C0000700E600EE00700000000000000000000D1
:104C10000000000000000000000000003FF03838F5
:104C2000381C381C38383FF03FF8381C380C380C2A
:104C3000381C3FF83FE000000000000000000000CA
:104C40000000000000000000000000E007FC1E045F
:104C500038003800300070007000700030003800FC
:104C60003C001F9C07FC000000000000000000004A
:104C70000000000000000000000000003FF030785D
:104C8000301C300C300E300E300E300E300E301C1A
:104C900030383FF03FC0000000000000000000007E
:104CA0000000000000000000000000001FF81800D5
:104CB0001800180018001FF81FF818001800180036
:104CC00018001FF81FF8000000000000000000009E
:104CD0000000000000000000000000001FF81800A5
:104CE0001800180018001FF81FF818001800180006
:104CF000180018001800000000000000000000006C
:104D00000000000000000000000000F007FC1E048E
:104D1000380030007000700070FC700C700C300CAB
:104D2000380C1F1C07FC0000000000000000000001
:104D3000000000000000000000000000300C300CFB
:104D4000300C300C300C3FFC3FFC300C300C300C85
:104D5000300C300C300C000000000000000000009F
:104D60000000000000000000000000003FFC018087
:104D7000018001800180018001800180018001802B
:104D800001803FFC3FFC000000000000000000002C
:104D90000000000000000000000000001FF00030D4
:104DA0000030003000300030003000300030003083
:104DB00000701DE01FC000000000000000000000A7
:104DC000000000000000000000000000381C3870E7
:104DD00038E039C03B803F003F003B8039C038E0BD
:104DE00038703838381C0000000000000000000057
:104DF0000000000000000000000000001C001C007B
:104E00001C001C001C001C001C001C001C001C00C2
:104E10001C001FFC1FFC0000000000000000000040
:104E2000000000000000000000000000381C7C3C76
:104E30006C3E6E6E666E66CE63C663866186600685
:104E40006006600660060000000000000000000030
:104E50000000000000000000000000003C0C3C0CC2
:104E60003E0C360C330C338C318C31CC30EC306C46
:104E7000307C303C301C00000000000000000000CE
:104E80000000000000000000000001C00FF81C3C02
:104E9000381C700E700E60066006700E700E700C7E
:104EA000381C1E780FE00000000000000000000029
:104EB0000000000000000000000000003FF0383C4F
:104EC000381C380C380C381C38783FE03800380073
:104ED000380038003800000000000000000000002A
:104EE0000000000000000000000001C00FF81C3CA2
:104EF000381C700E700E60066006700E700E700C1E
:104F0000381C1E780FE0018001C000FF003C00004B
:104F10000000000000000000000000003FF03838F2
:104F200038183818383838F03FC038E0387038381A
:104F30003838381C380E0000000000000000000067
:104F40000000000000000000000001E00FF8380041
:104F5000380038003C001F8003F00078001C001C63
:104F6000001C38783FE00000000000000000000056
:104F70000000000000000000000000007FFE018033
:104F80000180018001800180018001800180018019
:104F9000018001800180000000000000000000008E
:104FA000000000000000000000000000300C300C89
:104FB000300C300C300C300C300C300C300C300C11
:104FC000381C1C380FF0000000000000000000003A
:104FD000000000000000000000000000E006700E6D
:104FE000700E381C381C1C181C380C300E700660F3
:104FF00007E003C003C00000000000000000000044
:1050000000000000000000000000000060066006D4
:10501000600660066186638673C673CE766C366CF6
:105020003C3C3C3C381C000000000000000000003C
:10503000000000000000000000000000301C3818D4
:105040001C380E7007E003C003C007E00E701C3868
:105050001838381C700E000000000000000000002E
:10506000000000000000000000000000700E700C46
:10507000381C1C380E70066007E003C001800180F8
:10508000018001800180000000000000000000009D
:105090000000000000000000000000003FFC001CB9
:1050A0000038007000E001C0038007000E000C0013
:1050B00018003FFC3FFC0000000000000000000062
:1050C000000000000000000007F007F006000600E6
:1050D00006000600060006000600060006000600A0
:1050E00006000600060006000600060007F00000A5
:1050F0000000000000000000000018001C000C0070
:105100000600070003000380018001C000C00060AA
:105110000070003000380018000C00000000000093
:1051200000000000000000000FE00FE000600060E1
:10513000006000600060006000600060006000606F
:105140000060006000600060006000600FE0000030
:1051500000000000000000000000000003C006C0C6
:1051600006600C301818301C000000000000000021
:10517000000000000000000000000000000000002F
:10518000000000000000000000000000000000001F
:10519000000000000000000000000000000000000F
:1051A000000000000000000000000000FFFF000001
:1051B000000000000000000000001E00038000004E
:1051C00000000000000000000000000000000000DF
:1051D00000000000000000000000000000000000CF
:1051E00000000000000000000000000000000000BF
:1051F00000001FF01038001C001C0FFC1C1C381C89
:10520000381C3CFC1FDC0000000000000000000017
:1052100000000000000000000000380038003800E6
:1052200038003BF83E1C3C1C380C380C380C380C51
:10523000381C3C781FE00000000000000000000067
:10524000000000000000000000000000000000005E
:10525000000007F80E001C00380038003800380045
:105260001C000F1807F800000000000000000000FC
:1052700000000000000000000000001C001C001CDA
:10528000001C0FFC1C1C381C301C301C301C301C3B
:10529000383C1CFC0F9C00000000000000000000D7
:1052A00000000000000000000000000000000000FE
:1052B00000000FF01C38381C300C3FFC3000300070
:1052C00038001E0C07FC0000000000000000000079
:1052D0000000000000000000003C01FE038003000D
:1052E000030003007FFC7FFC0300030003000300B6
:1052F00003000300030000000000000000000000A5
:10530000000000000000000000000000000000009D
:1053100000000FFE1C383818381818381FF03B8072
:1053200030003FF01FFC300E700E381C1FF80000DC
:1053300000000000000000000000380038003800C5
:1053400038003BF83E383C1C381C381C381C381CD4
:10535000381C381C381C0000000000000000000051
:105360000000000000000000018003C003C0000036
:1053700000001FC001C001C001C001C001C001C0C8
:1053800001C001C03FFC0000000000000000000060
:10539000000000000000000000200070007000000D
:1053A00000003FF00070007000700070007000702E
:1053B0000070007000700070007020E03FC00000BE
:1053C0000000000000000000000018001800180095
:1053D0001800183C187018E01B801F001B8019E093
:1053E00018701838181C00000000000000000000B1
:1053F000000000000000000000001FC001C001C04C
:1054000001C001C001C001C001C001C001C001C094
:1054100001C001C03FFC00000000000000000000CF
:10542000000000000000000000000000000000007C
:1054300000006F3C79EE71CE718E718E718E718E1F
:10544000718E718E718E000000000000000000005F
:10545000000000000000000000000000000000004C
:1054600000003BF83E383C1C381C381C381C381CEB
:10547000381C381C381C0000000000000000000030
:10548000000000000000000000000000000000001C
:1054900000000FF01C3C381C700E700E700E700C6B
:1054A000381C1E780FE00000000000000000000023
:1054B00000000000000000000000000000000000EC
:1054C00000003BF83E1C3C1C380C380C380C380CE7
:1054D000381C3C783FE038003800380038000000C5
:1054E00000000000000000000000000000000000BC
:1054F00000000FFC1C1C381C301C301C301C301CE5
:10550000383C1CFC0F9C001C001C001C001C0000F4
:10551000000000000000000000000000000000008B
:10552000000019F81F1C1C0C180E18001800180099
:105530001800180018000000000000000000000023
:10554000000000000000000000000000000000005B
:1055500000000FF81C0018001E000FC001F8001812
:10556000001818381FF000000000000000000000C4
:10557000000000000000000000000000060006001F
:1055800006007FFC06000600060006000600060076
:105590000700078401FC000000000000000000007C
:1055A00000000000000000000000000000000000FB
:1055B0000000381C381C381C381C381C381C381C9F
:1055C000383C1CFC0FDC0000000000000000000064
:1055D00000000000000000000000000000000000CB
:1055E0000000700C381C38181C380C300E70066027
:1055F00007E003C003C0000000000000000000003E
:10560000000000000000000000000000000000009A
:105610000000600660066186738E73CC33CC366CF6
:10562000366C3C3C3C3800000000000000000000EC
:10563000000000000000000000000000000000006A
:105640000000381C1C380E7007E003C003C007E0E0
:105650000E701C38381E0000000000000000000022
:10566000000000000000000000000000000000003A
:105670000000700C381C38181C380C300E70066096
:1056800007E003C003C0038007000E007C00000099
:10569000000000000000000000000000000000000A
:1056A00000001FF80038007000E001C00380070010
:1056B0000C001FFC3FFC0000000000000000000088
:1056C0000000000000000000007801F80380038063
:1056D00003800380038003003F003E00030003803B
:1056E0000380038003800380038001C000F8000072
:1056F00000000000018001800180018001800180A4
:105700000180018001800180018001800180018091
:105710000180018001800180018001800180000002
:1057200000000000000000001E001F80018001C07A
:1057300001C001C001C000C000FC007C00C001C06D
:1057400001C001C001C001C001C003801F000000F2
:105750000000000000000000000000000000000049
:105760000000000000001C003F0671CE60FC00003D
:105770000000000000000000000000000000000029
:105780000000000000000000000000000000000019
:105790000000000000000000000000000000000009
:1057A00000000000000000000000000000000000F9
:1057B00000000000000000000000000000000000E9
:1057C00000000000000000000000000000000000D9
:1057D00000000000000000000000000000000000C9
:1057E00000000000000000000000000000000000B9
:1057F0000000003C00003C00003C00003C00003C7D
:1058000000003C00003C00003C00003C00003C006C
:10581000003C00003C00003C00003C000000000098
:105820000000003C00007E00003C00000000000082
:105830000000000000000000000000000000000068
:105840000000000000000000000000000000000058
:10585000000003C3E003C3E003C3C003C3C003C32A
:10586000C003C3C003C1C00000000000000000006E
:105870000000000000000000000000000000000028
:105880000000000000000000000000000000000018
:105890000000000000000000000000000000000008
:1058A00000000000000000000000000000000000F8
:1058B000000000000000000001E0E001C0E001C0C5
:1058C000E001C0E03FFFFE3FFFFE03C1C00381C017
:1058D0000381C00381C07FFFFC7FFFFC078380073B
:1058E0000380070380070380070780000000000093
:1058F00000000000000000000000000000000000A8
:105900000000000000000000000000000000000097
:105910000700000F00000E0001FFF007FFF01F0E50
:10592000001E1E001E1C001E1C000FDC0007FC00D9
:1059300000FF80003FF00038F800387800783C0025
:1059400070783071F83FFFE01FFF0000E00000E0DA
:105950000000E00000000000000000000000000067
:105960000000000000000000000000000000000037
:1059700000000F800F3FE01E78703C7070707070F8
:10598000E07071C03FE3801FC700000E00001C00E4
:1059900000780000F0F001E7FC03CF0E078E0E0F39
:1059A0000E0E1E0E0E3C07BC7003F8000000000037
:1059B00000000000000000000000000000000000E7
:1059C00000000000000000000000000000000000D7
:1059D000000000000001FF0007FF800F03C00F035D
:1059E000C00F03C00F0780079F0003FE0003F000F5
:1059F0000FF83C3E7C3C3C1F3C780FF87807F87C65
:105A000001F03E03F81FFFFC07FE1F00000000002E
:105A10000000000000000000000000000000000086
:105A20000000000000000000000000000000000076
:105A30000000003E00003C00003C00003C00003C38
:105A400000003C00003C00000000000000000000DE
:105A50000000000000000000000000000000000046
:105A60000000000000000000000000000000000036
:105A70000000000000000000000000000000000026
:105A80000000000000000000000000000000000016
:105A900000800001C0000780000F00001E00003CD5
:105AA0000000780000F00000E00001E00001E000EC
:105AB00001C00003C00003C00001C00001E00001FC
:105AC000E00000F00000F000007800003C00001E44
:105AD00000000F000007C00001C00000000000002F
